{
  "contractName": "ServicePlans",
  "abi": [
    {
      "anonymous": false,
      "inputs": [
        {
          "indexed": true,
          "internalType": "address",
          "name": "owner",
          "type": "address"
        },
        {
          "indexed": false,
          "internalType": "uint256",
          "name": "balance",
          "type": "uint256"
        }
      ],
      "name": "BalanceUpdated",
      "type": "event"
    },
    {
      "anonymous": false,
      "inputs": [
        {
          "indexed": false,
          "internalType": "uint256",
          "name": "planId",
          "type": "uint256"
        },
        {
          "indexed": false,
          "internalType": "uint256",
          "name": "serviceId",
          "type": "uint256"
        },
        {
          "indexed": false,
          "internalType": "string",
          "name": "planCode",
          "type": "string"
        },
        {
          "indexed": false,
          "internalType": "enum ServicePlans.BillingType",
          "name": "billingFrequency",
          "type": "uint8"
        },
        {
          "indexed": false,
          "internalType": "uint256",
          "name": "costPerBilling",
          "type": "uint256"
        }
      ],
      "name": "PlanCreated",
      "type": "event"
    },
    {
      "anonymous": false,
      "inputs": [
        {
          "indexed": false,
          "internalType": "uint256",
          "name": "serviceId",
          "type": "uint256"
        },
        {
          "indexed": false,
          "internalType": "address",
          "name": "owner",
          "type": "address"
        },
        {
          "indexed": false,
          "internalType": "string",
          "name": "serviceCode",
          "type": "string"
        },
        {
          "indexed": false,
          "internalType": "bool",
          "name": "isPresent",
          "type": "bool"
        }
      ],
      "name": "ServiceCreated",
      "type": "event"
    },
    {
      "inputs": [
        {
          "internalType": "string",
          "name": "_serviceCode",
          "type": "string"
        }
      ],
      "name": "createService",
      "outputs": [],
      "stateMutability": "nonpayable",
      "type": "function"
    },
    {
      "inputs": [],
      "name": "deposit",
      "outputs": [],
      "stateMutability": "payable",
      "type": "function"
    },
    {
      "inputs": [],
      "name": "getAllOwnedServices",
      "outputs": [
        {
          "components": [
            {
              "internalType": "uint256",
              "name": "serviceId",
              "type": "uint256"
            },
            {
              "internalType": "address",
              "name": "owner",
              "type": "address"
            },
            {
              "internalType": "string",
              "name": "serviceCode",
              "type": "string"
            },
            {
              "internalType": "bool",
              "name": "isPresent",
              "type": "bool"
            }
          ],
          "internalType": "struct UserServices.Service[]",
          "name": "",
          "type": "tuple[]"
        }
      ],
      "stateMutability": "view",
      "type": "function"
    },
    {
      "inputs": [],
      "name": "getCurrentBalance",
      "outputs": [
        {
          "internalType": "uint256",
          "name": "_balance",
          "type": "uint256"
        }
      ],
      "stateMutability": "view",
      "type": "function"
    },
    {
      "inputs": [
        {
          "internalType": "uint256",
          "name": "_amount",
          "type": "uint256"
        }
      ],
      "name": "withdraw",
      "outputs": [],
      "stateMutability": "nonpayable",
      "type": "function"
    },
    {
      "inputs": [
        {
          "internalType": "uint256",
          "name": "_serviceId",
          "type": "uint256"
        },
        {
          "internalType": "string",
          "name": "_planCode",
          "type": "string"
        },
        {
          "internalType": "enum ServicePlans.BillingType",
          "name": "_billingFrequency",
          "type": "uint8"
        },
        {
          "internalType": "uint256",
          "name": "_costPerBilling",
          "type": "uint256"
        }
      ],
      "name": "createPlan",
      "outputs": [],
      "stateMutability": "nonpayable",
      "type": "function"
    },
    {
      "inputs": [
        {
          "internalType": "uint256",
          "name": "_serviceId",
          "type": "uint256"
        }
      ],
      "name": "getPlans",
      "outputs": [
        {
          "components": [
            {
              "internalType": "uint256",
              "name": "planId",
              "type": "uint256"
            },
            {
              "internalType": "string",
              "name": "planCode",
              "type": "string"
            },
            {
              "internalType": "string",
              "name": "serviceCode",
              "type": "string"
            },
            {
              "internalType": "enum ServicePlans.BillingType",
              "name": "billingFrequency",
              "type": "uint8"
            },
            {
              "internalType": "uint256",
              "name": "costPerBilling",
              "type": "uint256"
            }
          ],
          "internalType": "struct ServicePlans.PlanDetailsStruct[]",
          "name": "",
          "type": "tuple[]"
        }
      ],
      "stateMutability": "view",
      "type": "function"
    }
  ],
  "bytecode": "0x608060405234801561001057600080fd5b50611fb8806100206000396000f3fe6080604052600436106100705760003560e01c8063a57497101161004e578063a574971014610104578063be1a68421461012f578063d0e30db014610158578063feb5475e1461016257610070565b80632e1a7d4d14610075578063525780121461009e57806365580a29146100c7575b600080fd5b34801561008157600080fd5b5061009c60048036038101906100979190611307565b61018d565b005b3480156100aa57600080fd5b506100c560048036038101906100c091906112c6565b610307565b005b3480156100d357600080fd5b506100ee60048036038101906100e99190611307565b610521565b6040516100fb9190611834565b60405180910390f35b34801561011057600080fd5b50610119610947565b6040516101269190611938565b60405180910390f35b34801561013b57600080fd5b5061015660048036038101906101519190611330565b610990565b005b610160610ce0565b005b34801561016e57600080fd5b50610177610e0c565b6040516101849190611856565b60405180910390f35b610195610947565b81106101d6576040517f08c379a00000000000000000000000000000000000000000000000000000000081526004016101cd906118d8565b60405180910390fd5b806000803373ffffffffffffffffffffffffffffffffffffffff1673ffffffffffffffffffffffffffffffffffffffff16815260200190815260200160002060010160008282546102279190611b4f565b925050819055503373ffffffffffffffffffffffffffffffffffffffff166108fc829081150290604051600060405180830381858888f19350505050158015610274573d6000803e3d6000fd5b503373ffffffffffffffffffffffffffffffffffffffff167f8ad64a0ac7700dd8425ab0499f107cb6e2cd1581d803c5b8c1c79dcb8190b1af6000803373ffffffffffffffffffffffffffffffffffffffff1673ffffffffffffffffffffffffffffffffffffffff168152602001908152602001600020600101546040516102fc9190611938565b60405180910390a250565b6000338260405160200161031c9291906117cf565b6040516020818303038152906040528051906020012060001c90506001600082815260200190815260200160002060030160009054906101000a900460ff161561039b576040517f08c379a000000000000000000000000000000000000000000000000000000000815260040161039290611878565b60405180910390fd5b60405180608001604052808281526020013373ffffffffffffffffffffffffffffffffffffffff16815260200183815260200160011515815250600160008381526020019081526020016000206000820151816000015560208201518160010160006101000a81548173ffffffffffffffffffffffffffffffffffffffff021916908373ffffffffffffffffffffffffffffffffffffffff16021790555060408201518160020190805190602001906104559291906110ea565b5060608201518160030160006101000a81548160ff021916908315150217905550905050600260003373ffffffffffffffffffffffffffffffffffffffff1673ffffffffffffffffffffffffffffffffffffffff1681526020019081526020016000208190806001815401808255809150506001900390600052602060002001600090919091909150557f20b331a7476f61849b1da6c4dab928456688acfc5b2a1860c817cdb2a78a7a8c81338460016040516105159493929190611953565b60405180910390a15050565b6060816001600082815260200190815260200160002060030160009054906101000a900460ff16610587576040517f08c379a000000000000000000000000000000000000000000000000000000000815260040161057e906118f8565b60405180910390fd5b823373ffffffffffffffffffffffffffffffffffffffff166001600083815260200190815260200160002060010160009054906101000a900473ffffffffffffffffffffffffffffffffffffffff1673ffffffffffffffffffffffffffffffffffffffff161461062c576040517f08c379a000000000000000000000000000000000000000000000000000000000815260040161062390611898565b60405180910390fd5b60006004600086815260200190815260200160002080549050905060008167ffffffffffffffff811115610689577f4e487b7100000000000000000000000000000000000000000000000000000000600052604160045260246000fd5b6040519080825280602002602001820160405280156106c257816020015b6106af611170565b8152602001906001900390816106a75790505b50905060005b8281101561093a57600060036000600460008b81526020019081526020016000208481548110610721577f4e487b7100000000000000000000000000000000000000000000000000000000600052603260045260246000fd5b9060005260206000200154815260200190815260200160002090506040518060a001604052808260000154815260200182600201805461076090611c32565b80601f016020809104026020016040519081016040528092919081815260200182805461078c90611c32565b80156107d95780601f106107ae576101008083540402835291602001916107d9565b820191906000526020600020905b8154815290600101906020018083116107bc57829003601f168201915b505050505081526020016001600084600101548152602001908152602001600020600201805461080890611c32565b80601f016020809104026020016040519081016040528092919081815260200182805461083490611c32565b80156108815780601f1061085657610100808354040283529160200191610881565b820191906000526020600020905b81548152906001019060200180831161086457829003601f168201915b505050505081526020018260030160009054906101000a900460ff1660068111156108d5577f4e487b7100000000000000000000000000000000000000000000000000000000600052602160045260246000fd5b8152602001826004015481525083838151811061091b577f4e487b7100000000000000000000000000000000000000000000000000000000600052603260045260246000fd5b602002602001018190525050808061093290611c95565b9150506106c8565b5080945050505050919050565b60008060003373ffffffffffffffffffffffffffffffffffffffff1673ffffffffffffffffffffffffffffffffffffffff16815260200190815260200160002060010154905090565b836001600082815260200190815260200160002060030160009054906101000a900460ff166109f4576040517f08c379a00000000000000000000000000000000000000000000000000000000081526004016109eb906118f8565b60405180910390fd5b843373ffffffffffffffffffffffffffffffffffffffff166001600083815260200190815260200160002060010160009054906101000a900473ffffffffffffffffffffffffffffffffffffffff1673ffffffffffffffffffffffffffffffffffffffff1614610a99576040517f08c379a0000000000000000000000000000000000000000000000000000000008152600401610a9090611898565b60405180910390fd5b6000868585604051602001610ab0939291906117f7565b6040516020818303038152906040528051906020012060001c90506003600082815260200190815260200160002060050160009054906101000a900460ff1615610b2f576040517f08c379a0000000000000000000000000000000000000000000000000000000008152600401610b2690611918565b60405180910390fd5b6040518060c00160405280828152602001888152602001878152602001866006811115610b85577f4e487b7100000000000000000000000000000000000000000000000000000000600052602160045260246000fd5b8152602001858152602001600115158152506003600083815260200190815260200160002060008201518160000155602082015181600101556040820151816002019080519060200190610bda9291906110ea565b5060608201518160030160006101000a81548160ff02191690836006811115610c2c577f4e487b7100000000000000000000000000000000000000000000000000000000600052602160045260246000fd5b02179055506080820151816004015560a08201518160050160006101000a81548160ff021916908315150217905550905050600460008881526020019081526020016000208190806001815401808255809150506001900390600052602060002001600090919091909150557f0dda989d88e16176e2e7d349a68742ccada15c84d994e50983680295280c5c638188888888604051610ccf95949392919061199f565b60405180910390a150505050505050565b60003411610d23576040517f08c379a0000000000000000000000000000000000000000000000000000000008152600401610d1a906118b8565b60405180910390fd5b346000803373ffffffffffffffffffffffffffffffffffffffff1673ffffffffffffffffffffffffffffffffffffffff1681526020019081526020016000206001016000828254610d749190611af9565b925050819055503373ffffffffffffffffffffffffffffffffffffffff167f8ad64a0ac7700dd8425ab0499f107cb6e2cd1581d803c5b8c1c79dcb8190b1af6000803373ffffffffffffffffffffffffffffffffffffffff1673ffffffffffffffffffffffffffffffffffffffff16815260200190815260200160002060010154604051610e029190611938565b60405180910390a2565b60606000600260003373ffffffffffffffffffffffffffffffffffffffff1673ffffffffffffffffffffffffffffffffffffffff16815260200190815260200160002080549050905060008167ffffffffffffffff811115610e97577f4e487b7100000000000000000000000000000000000000000000000000000000600052604160045260246000fd5b604051908082528060200260200182016040528015610ed057816020015b610ebd6111d7565b815260200190600190039081610eb55790505b50905060005b828110156110e15760016000600260003373ffffffffffffffffffffffffffffffffffffffff1673ffffffffffffffffffffffffffffffffffffffff1681526020019081526020016000208381548110610f59577f4e487b7100000000000000000000000000000000000000000000000000000000600052603260045260246000fd5b90600052602060002001548152602001908152602001600020604051806080016040529081600082015481526020016001820160009054906101000a900473ffffffffffffffffffffffffffffffffffffffff1673ffffffffffffffffffffffffffffffffffffffff1673ffffffffffffffffffffffffffffffffffffffff168152602001600282018054610fed90611c32565b80601f016020809104026020016040519081016040528092919081815260200182805461101990611c32565b80156110665780601f1061103b57610100808354040283529160200191611066565b820191906000526020600020905b81548152906001019060200180831161104957829003601f168201915b505050505081526020016003820160009054906101000a900460ff1615151515815250508282815181106110c3577f4e487b7100000000000000000000000000000000000000000000000000000000600052603260045260246000fd5b602002602001018190525080806110d990611c95565b915050610ed6565b50809250505090565b8280546110f690611c32565b90600052602060002090601f016020900481019282611118576000855561115f565b82601f1061113157805160ff191683800117855561115f565b8280016001018555821561115f579182015b8281111561115e578251825591602001919060010190611143565b5b50905061116c9190611217565b5090565b6040518060a00160405280600081526020016060815260200160608152602001600060068111156111ca577f4e487b7100000000000000000000000000000000000000000000000000000000600052602160045260246000fd5b8152602001600081525090565b604051806080016040528060008152602001600073ffffffffffffffffffffffffffffffffffffffff168152602001606081526020016000151581525090565b5b80821115611230576000816000905550600101611218565b5090565b600061124761124284611a1e565b6119f9565b90508281526020810184848401111561125f57600080fd5b61126a848285611bf0565b509392505050565b60008135905061128181611f5b565b92915050565b600082601f83011261129857600080fd5b81356112a8848260208601611234565b91505092915050565b6000813590506112c081611f6b565b92915050565b6000602082840312156112d857600080fd5b600082013567ffffffffffffffff8111156112f257600080fd5b6112fe84828501611287565b91505092915050565b60006020828403121561131957600080fd5b6000611327848285016112b1565b91505092915050565b6000806000806080858703121561134657600080fd5b6000611354878288016112b1565b945050602085013567ffffffffffffffff81111561137157600080fd5b61137d87828801611287565b935050604061138e87828801611272565b925050606061139f878288016112b1565b91505092959194509250565b60006113b783836116ba565b905092915050565b60006113cb8383611737565b905092915050565b6113dc81611b83565b82525050565b6113eb81611b83565b82525050565b6114026113fd82611b83565b611cde565b82525050565b600061141382611a6f565b61141d8185611aaa565b93508360208202850161142f85611a4f565b8060005b8581101561146b578484038952815161144c85826113ab565b945061145783611a90565b925060208a01995050600181019050611433565b50829750879550505050505092915050565b600061148882611a7a565b6114928185611abb565b9350836020820285016114a485611a5f565b8060005b858110156114e057848403895281516114c185826113bf565b94506114cc83611a9d565b925060208a019950506001810190506114a8565b50829750879550505050505092915050565b6114fb81611b95565b82525050565b61150a81611b95565b82525050565b61151981611bde565b82525050565b61152881611bde565b82525050565b61153f61153a82611bde565b611d0c565b82525050565b600061155082611a85565b61155a8185611acc565b935061156a818560208601611bff565b61157381611dda565b840191505092915050565b600061158982611a85565b6115938185611add565b93506115a3818560208601611bff565b6115ac81611dda565b840191505092915050565b60006115c282611a85565b6115cc8185611aee565b93506115dc818560208601611bff565b80840191505092915050565b60006115f5601f83611add565b915061160082611e05565b602082019050919050565b6000611618602b83611add565b915061162382611e2e565b604082019050919050565b600061163b602a83611add565b915061164682611e7d565b604082019050919050565b600061165e601483611add565b915061166982611ecc565b602082019050919050565b6000611681601383611add565b915061168c82611ef5565b602082019050919050565b60006116a4601783611add565b91506116af82611f1e565b602082019050919050565b600060a0830160008301516116d2600086018261179a565b50602083015184820360208601526116ea8282611545565b915050604083015184820360408601526117048282611545565b91505060608301516117196060860182611510565b50608083015161172c608086018261179a565b508091505092915050565b600060808301600083015161174f600086018261179a565b50602083015161176260208601826113d3565b506040830151848203604086015261177a8282611545565b915050606083015161178f60608601826114f2565b508091505092915050565b6117a381611bd4565b82525050565b6117b281611bd4565b82525050565b6117c96117c482611bd4565b611d02565b82525050565b60006117db82856113f1565b6014820191506117eb82846115b7565b91508190509392505050565b600061180382866117b8565b602082019150611813828561152e565b60018201915061182382846117b8565b602082019150819050949350505050565b6000602082019050818103600083015261184e8184611408565b905092915050565b60006020820190508181036000830152611870818461147d565b905092915050565b60006020820190508181036000830152611891816115e8565b9050919050565b600060208201905081810360008301526118b18161160b565b9050919050565b600060208201905081810360008301526118d18161162e565b9050919050565b600060208201905081810360008301526118f181611651565b9050919050565b6000602082019050818103600083015261191181611674565b9050919050565b6000602082019050818103600083015261193181611697565b9050919050565b600060208201905061194d60008301846117a9565b92915050565b600060808201905061196860008301876117a9565b61197560208301866113e2565b8181036040830152611987818561157e565b90506119966060830184611501565b95945050505050565b600060a0820190506119b460008301886117a9565b6119c160208301876117a9565b81810360408301526119d3818661157e565b90506119e2606083018561151f565b6119ef60808301846117a9565b9695505050505050565b6000611a03611a14565b9050611a0f8282611c64565b919050565b6000604051905090565b600067ffffffffffffffff821115611a3957611a38611dab565b5b611a4282611dda565b9050602081019050919050565b6000819050602082019050919050565b6000819050602082019050919050565b600081519050919050565b600081519050919050565b600081519050919050565b6000602082019050919050565b6000602082019050919050565b600082825260208201905092915050565b600082825260208201905092915050565b600082825260208201905092915050565b600082825260208201905092915050565b600081905092915050565b6000611b0482611bd4565b9150611b0f83611bd4565b9250827fffffffffffffffffffffffffffffffffffffffffffffffffffffffffffffffff03821115611b4457611b43611d1e565b5b828201905092915050565b6000611b5a82611bd4565b9150611b6583611bd4565b925082821015611b7857611b77611d1e565b5b828203905092915050565b6000611b8e82611bb4565b9050919050565b60008115159050919050565b6000819050611baf82611f47565b919050565b600073ffffffffffffffffffffffffffffffffffffffff82169050919050565b6000819050919050565b6000611be982611ba1565b9050919050565b82818337600083830152505050565b60005b83811015611c1d578082015181840152602081019050611c02565b83811115611c2c576000848401525b50505050565b60006002820490506001821680611c4a57607f821691505b60208210811415611c5e57611c5d611d7c565b5b50919050565b611c6d82611dda565b810181811067ffffffffffffffff82111715611c8c57611c8b611dab565b5b80604052505050565b6000611ca082611bd4565b91507fffffffffffffffffffffffffffffffffffffffffffffffffffffffffffffffff821415611cd357611cd2611d1e565b5b600182019050919050565b6000611ce982611cf0565b9050919050565b6000611cfb82611df8565b9050919050565b6000819050919050565b6000611d1782611deb565b9050919050565b7f4e487b7100000000000000000000000000000000000000000000000000000000600052601160045260246000fd5b7f4e487b7100000000000000000000000000000000000000000000000000000000600052602160045260246000fd5b7f4e487b7100000000000000000000000000000000000000000000000000000000600052602260045260246000fd5b7f4e487b7100000000000000000000000000000000000000000000000000000000600052604160045260246000fd5b6000601f19601f8301169050919050565b60008160f81b9050919050565b60008160601b9050919050565b7f5365727669636520636f646520697320616c72656164792070726573656e7400600082015250565b7f55736572206e6f7420746865206f776e6572206f66207468652072657175657360008201527f7465642073657276696365000000000000000000000000000000000000000000602082015250565b7f4465706f73697420616d6f756e742073686f756c64206265206772656174657260008201527f207468616e207a65726f00000000000000000000000000000000000000000000602082015250565b7f496e737566696369656e742042616c616e636521000000000000000000000000600082015250565b7f53657276696365206e6f742070726573656e7400000000000000000000000000600082015250565b7f506c616e20697320616c72656164792070726573656e74000000000000000000600082015250565b60078110611f5857611f57611d4d565b5b50565b60078110611f6857600080fd5b50565b611f7481611bd4565b8114611f7f57600080fd5b5056fea2646970667358221220871a1a8d08d58d24962b1d9c1ac0a8c93c1f9d6771dc426ddcd534b2070b483564736f6c63430008040033",
  "immutableReferences": {},
  "source": "// SPDX-License-Identifier: UNLICENSED\n\npragma solidity 0.8.4;\n\nimport \"./UserServices.sol\";\n\n/**\n * @title ServicePlans\n * @dev Extension of UserSmartAccount contract for users with Services\n */\ncontract ServicePlans is UserServices {\n\n    enum BillingType {MINUTELY, HOURLY, DAILY, WEEKLY, MONTHLY, QUARTERLY, YEARLY}\n\n    struct Plan {\n        uint256 planId;\n        uint256 serviceId;\n        string planCode;\n        BillingType billingFrequency;\n        uint256 costPerBilling;\n        bool isPresent;\n    }\n\n    event PlanCreated(uint256 planId, uint256 serviceId, string planCode, BillingType billingFrequency, uint256 costPerBilling);\n\n    mapping (uint256 => Plan) plans;\n    mapping (uint256 => uint256[]) serviceToPlans;\n\n    modifier planIsPresent(uint256 _planId) {\n        require(plans[_planId].isPresent, \"Plan not present\");\n        _;\n    }\n\n    /**\n    * @dev create plan for the service\n    * @param _serviceId id of the service\n    * @param _billingFrequency billing frequency type\n    * @param _planCode unique identifier for the plan\n    * @param _costPerBilling cost per billing cycle\n     */\n    function createPlan(uint256 _serviceId, string memory _planCode, BillingType _billingFrequency, uint256 _costPerBilling) external serviceIsPresent(_serviceId) isOwnerOfService(_serviceId) {\n        uint256 _planId = uint256(keccak256(abi.encodePacked(_serviceId, _billingFrequency, _costPerBilling)));\n        require(!plans[_planId].isPresent, \"Plan is already present\");\n\n        plans[_planId] = Plan(_planId, _serviceId, _planCode, _billingFrequency, _costPerBilling, true);\n        serviceToPlans[_serviceId].push(_planId);\n        emit PlanCreated(_planId, _serviceId, _planCode, _billingFrequency, _costPerBilling);\n    }\n\n    struct PlanDetailsStruct {\n        uint256 planId;\n        string planCode;\n        string serviceCode;\n        BillingType billingFrequency;\n        uint256 costPerBilling;\n    }\n\n    /**\n    * @dev fetch all the plans of the service\n    * @return _servicePlans list of all plans created under given service\n     */\n    function getPlans(uint256 _serviceId) public view serviceIsPresent(_serviceId) isOwnerOfService(_serviceId) returns(PlanDetailsStruct[] memory) {\n        uint256 numPlans = serviceToPlans[_serviceId].length;\n        PlanDetailsStruct[] memory _servicePlans = new PlanDetailsStruct[](numPlans);\n        for (uint256 i = 0; i < numPlans; i++) {\n            Plan storage _plan = plans[serviceToPlans[_serviceId][i]];\n            _servicePlans[i] = PlanDetailsStruct(\n                _plan.planId,\n                _plan.planCode,\n                services[_plan.serviceId].serviceCode,\n                _plan.billingFrequency,\n                _plan.costPerBilling\n            );\n        }\n        return _servicePlans;\n    }\n}",
  "sourcePath": "/Users/zishansami102/Documents/projects/github/charger-contracts/contracts/ServicePlans.sol",
  "compiler": {
    "name": "solc",
    "version": "0.8.4+commit.c7e474f2.Emscripten.clang"
  },
  "schemaVersion": "3.4.3",
  "updatedAt": "2021-11-22T09:43:22.720Z",
  "devdoc": {
    "details": "Extension of UserSmartAccount contract for users with Services",
    "kind": "dev",
    "methods": {
      "createPlan(uint256,string,uint8,uint256)": {
        "details": "create plan for the service",
        "params": {
          "_billingFrequency": "billing frequency type",
          "_costPerBilling": "cost per billing cycle",
          "_planCode": "unique identifier for the plan",
          "_serviceId": "id of the service"
        }
      },
      "createService(string)": {
        "details": "create service for the user",
        "params": {
          "_serviceCode": "unique identifier for the service"
        }
      },
      "deposit()": {
        "details": "Deposit ether in user's smart account"
      },
      "getAllOwnedServices()": {
        "details": "fetch all the services owned by the user",
        "returns": {
          "_0": "_ownedServices list of all services owned by the user"
        }
      },
      "getCurrentBalance()": {
        "details": "Retrieves the balance of the user",
        "returns": {
          "_balance": "_balance"
        }
      },
      "getPlans(uint256)": {
        "details": "fetch all the plans of the service",
        "returns": {
          "_0": "_servicePlans list of all plans created under given service"
        }
      },
      "withdraw(uint256)": {
        "details": "Withdraw ether from user's smart account",
        "params": {
          "_amount": "value to withdraw from the user's balance"
        }
      }
    },
    "title": "ServicePlans",
    "version": 1
  },
  "userdoc": {
    "kind": "user",
    "methods": {},
    "version": 1
  }
}