{
  "contractName": "UserAccount",
  "abi": [
    {
      "anonymous": false,
      "inputs": [
        {
          "indexed": true,
          "internalType": "address",
          "name": "owner",
          "type": "address"
        },
        {
          "indexed": false,
          "internalType": "uint256",
          "name": "balance",
          "type": "uint256"
        }
      ],
      "name": "BalanceUpdated",
      "type": "event"
    },
    {
      "inputs": [],
      "name": "deposit",
      "outputs": [],
      "stateMutability": "payable",
      "type": "function"
    },
    {
      "inputs": [],
      "name": "getCurrentBalance",
      "outputs": [
        {
          "internalType": "uint256",
          "name": "_balance",
          "type": "uint256"
        }
      ],
      "stateMutability": "view",
      "type": "function"
    },
    {
      "inputs": [
        {
          "internalType": "uint256",
          "name": "_amount",
          "type": "uint256"
        }
      ],
      "name": "withdraw",
      "outputs": [],
      "stateMutability": "nonpayable",
      "type": "function"
    }
  ],
  "bytecode": "0x608060405234801561001057600080fd5b5061060d806100206000396000f3fe6080604052600436106100345760003560e01c80632e1a7d4d14610039578063a574971014610062578063d0e30db01461008d575b600080fd5b34801561004557600080fd5b50610060600480360381019061005b919061039b565b610097565b005b34801561006e57600080fd5b50610077610211565b6040516100849190610459565b60405180910390f35b61009561025a565b005b61009f610211565b81106100e0576040517f08c379a00000000000000000000000000000000000000000000000000000000081526004016100d790610439565b60405180910390fd5b806000803373ffffffffffffffffffffffffffffffffffffffff1673ffffffffffffffffffffffffffffffffffffffff168152602001908152602001600020600101600082825461013191906104db565b925050819055503373ffffffffffffffffffffffffffffffffffffffff166108fc829081150290604051600060405180830381858888f1935050505015801561017e573d6000803e3d6000fd5b503373ffffffffffffffffffffffffffffffffffffffff167f8ad64a0ac7700dd8425ab0499f107cb6e2cd1581d803c5b8c1c79dcb8190b1af6000803373ffffffffffffffffffffffffffffffffffffffff1673ffffffffffffffffffffffffffffffffffffffff168152602001908152602001600020600101546040516102069190610459565b60405180910390a250565b60008060003373ffffffffffffffffffffffffffffffffffffffff1673ffffffffffffffffffffffffffffffffffffffff16815260200190815260200160002060010154905090565b6000341161029d576040517f08c379a000000000000000000000000000000000000000000000000000000000815260040161029490610419565b60405180910390fd5b346000803373ffffffffffffffffffffffffffffffffffffffff1673ffffffffffffffffffffffffffffffffffffffff16815260200190815260200160002060010160008282546102ee9190610485565b925050819055503373ffffffffffffffffffffffffffffffffffffffff167f8ad64a0ac7700dd8425ab0499f107cb6e2cd1581d803c5b8c1c79dcb8190b1af6000803373ffffffffffffffffffffffffffffffffffffffff1673ffffffffffffffffffffffffffffffffffffffff1681526020019081526020016000206001015460405161037c9190610459565b60405180910390a2565b600081359050610395816105c0565b92915050565b6000602082840312156103ad57600080fd5b60006103bb84828501610386565b91505092915050565b60006103d1602a83610474565b91506103dc82610548565b604082019050919050565b60006103f4601483610474565b91506103ff82610597565b602082019050919050565b6104138161050f565b82525050565b60006020820190508181036000830152610432816103c4565b9050919050565b60006020820190508181036000830152610452816103e7565b9050919050565b600060208201905061046e600083018461040a565b92915050565b600082825260208201905092915050565b60006104908261050f565b915061049b8361050f565b9250827fffffffffffffffffffffffffffffffffffffffffffffffffffffffffffffffff038211156104d0576104cf610519565b5b828201905092915050565b60006104e68261050f565b91506104f18361050f565b92508282101561050457610503610519565b5b828203905092915050565b6000819050919050565b7f4e487b7100000000000000000000000000000000000000000000000000000000600052601160045260246000fd5b7f4465706f73697420616d6f756e742073686f756c64206265206772656174657260008201527f207468616e207a65726f00000000000000000000000000000000000000000000602082015250565b7f496e737566696369656e742042616c616e636521000000000000000000000000600082015250565b6105c98161050f565b81146105d457600080fd5b5056fea26469706673582212209283cd02e577924c8e59d1c61aa6c17c27c47c7b0544c9103190720a1893c7a864736f6c63430008040033",
  "immutableReferences": {},
  "source": "// SPDX-License-Identifier: GPL-3.0\n\npragma solidity 0.8.4;\n\n/**\n * @title User\n * @dev Smart Account for users and service providers\n */\ncontract UserAccount {\n\n    // uint256 public userCount;\n    \n    struct User {\n        address owner;\n        uint256 lastRecordedBalance;\n        // bool isActive;\n    }\n    \n    event BalanceUpdated(address indexed owner, uint balance);\n    mapping (address => User) users;\n    \n    // /**\n    //  * @dev Requires user to be present in the user list to be allowed to use the conditioned methods\n    //  */\n    // modifier isActiveUser() {\n    //     require(users[msg.sender].isActive, \"User not present\");\n    //     _;\n    // } \n\n    // /**\n    //  * @dev Connect users EOA with the smart account\n    //  */\n    // function connect() internal {\n    //     if (!users[msg.sender].isActive) {\n    //         _createUser();\n    //     }\n    // }\n\n    // /**\n    //  * @dev Create user and add it in the user mapping\n    //  */\n    // function _createUser() private {    \n    //     users[msg.sender] = User(msg.sender, 0, true);\n    //     userCount++;\n    //     emit UserCreated(msg.sender, 0, true);\n    // }\n    \n    /**\n     * @dev Deposit ether in user's smart account\n     */\n    function deposit() public payable {\n        require(msg.value > 0, \"Deposit amount should be greater than zero\");\n        users[msg.sender].lastRecordedBalance += msg.value;\n        emit BalanceUpdated(msg.sender, users[msg.sender].lastRecordedBalance);\n    }\n\n    /**\n     * @dev Retrieves the balance of the user\n     * @return _balance\n     */\n    function getCurrentBalance() public view returns(uint256 _balance){\n        _balance = users[msg.sender].lastRecordedBalance;\n    }\n\n    /**\n     * @dev Withdraw ether from user's smart account\n     * @param _amount value to withdraw from the user's balance\n     */\n    function withdraw(uint256 _amount) public {\n        require(_amount < getCurrentBalance(), \"Insuficient Balance!\");\n        users[msg.sender].lastRecordedBalance -= _amount;\n        payable(msg.sender).transfer(_amount);\n        emit BalanceUpdated(msg.sender, users[msg.sender].lastRecordedBalance);\n    }\n}",
  "sourcePath": "/Users/zishansami102/Documents/projects/github/charger-contracts/contracts/UserAccount.sol",
  "compiler": {
    "name": "solc",
    "version": "0.8.4+commit.c7e474f2.Emscripten.clang"
  },
  "schemaVersion": "3.4.3",
  "updatedAt": "2021-11-22T09:43:22.731Z",
  "devdoc": {
    "details": "Smart Account for users and service providers",
    "kind": "dev",
    "methods": {
      "deposit()": {
        "details": "Deposit ether in user's smart account"
      },
      "getCurrentBalance()": {
        "details": "Retrieves the balance of the user",
        "returns": {
          "_balance": "_balance"
        }
      },
      "withdraw(uint256)": {
        "details": "Withdraw ether from user's smart account",
        "params": {
          "_amount": "value to withdraw from the user's balance"
        }
      }
    },
    "title": "User",
    "version": 1
  },
  "userdoc": {
    "kind": "user",
    "methods": {},
    "version": 1
  }
}