{
  "contractName": "UserServices",
  "abi": [
    {
      "anonymous": false,
      "inputs": [
        {
          "indexed": true,
          "internalType": "address",
          "name": "owner",
          "type": "address"
        },
        {
          "indexed": false,
          "internalType": "uint256",
          "name": "balance",
          "type": "uint256"
        }
      ],
      "name": "BalanceUpdated",
      "type": "event"
    },
    {
      "anonymous": false,
      "inputs": [
        {
          "indexed": false,
          "internalType": "uint256",
          "name": "serviceId",
          "type": "uint256"
        },
        {
          "indexed": false,
          "internalType": "address",
          "name": "owner",
          "type": "address"
        },
        {
          "indexed": false,
          "internalType": "string",
          "name": "serviceCode",
          "type": "string"
        },
        {
          "indexed": false,
          "internalType": "bool",
          "name": "isPresent",
          "type": "bool"
        }
      ],
      "name": "ServiceCreated",
      "type": "event"
    },
    {
      "inputs": [],
      "name": "deposit",
      "outputs": [],
      "stateMutability": "payable",
      "type": "function"
    },
    {
      "inputs": [],
      "name": "getCurrentBalance",
      "outputs": [
        {
          "internalType": "uint256",
          "name": "_balance",
          "type": "uint256"
        }
      ],
      "stateMutability": "view",
      "type": "function"
    },
    {
      "inputs": [
        {
          "internalType": "uint256",
          "name": "_amount",
          "type": "uint256"
        }
      ],
      "name": "withdraw",
      "outputs": [],
      "stateMutability": "nonpayable",
      "type": "function"
    },
    {
      "inputs": [
        {
          "internalType": "string",
          "name": "_serviceCode",
          "type": "string"
        }
      ],
      "name": "createService",
      "outputs": [],
      "stateMutability": "nonpayable",
      "type": "function"
    },
    {
      "inputs": [],
      "name": "getAllOwnedServices",
      "outputs": [
        {
          "components": [
            {
              "internalType": "uint256",
              "name": "serviceId",
              "type": "uint256"
            },
            {
              "internalType": "address",
              "name": "owner",
              "type": "address"
            },
            {
              "internalType": "string",
              "name": "serviceCode",
              "type": "string"
            },
            {
              "internalType": "bool",
              "name": "isPresent",
              "type": "bool"
            }
          ],
          "internalType": "struct UserServices.Service[]",
          "name": "",
          "type": "tuple[]"
        }
      ],
      "stateMutability": "view",
      "type": "function"
    }
  ],
  "bytecode": "0x608060405234801561001057600080fd5b50611270806100206000396000f3fe60806040526004361061004a5760003560e01c80632e1a7d4d1461004f5780635257801214610078578063a5749710146100a1578063d0e30db0146100cc578063feb5475e146100d6575b600080fd5b34801561005b57600080fd5b5061007660048036038101906100719190610a89565b610101565b005b34801561008457600080fd5b5061009f600480360381019061009a9190610a48565b61027b565b005b3480156100ad57600080fd5b506100b6610495565b6040516100c39190610dc5565b60405180910390f35b6100d46104de565b005b3480156100e257600080fd5b506100eb61060a565b6040516100f89190610d43565b60405180910390f35b610109610495565b811061014a576040517f08c379a000000000000000000000000000000000000000000000000000000000815260040161014190610da5565b60405180910390fd5b806000803373ffffffffffffffffffffffffffffffffffffffff1673ffffffffffffffffffffffffffffffffffffffff168152602001908152602001600020600101600082825461019b9190610f49565b925050819055503373ffffffffffffffffffffffffffffffffffffffff166108fc829081150290604051600060405180830381858888f193505050501580156101e8573d6000803e3d6000fd5b503373ffffffffffffffffffffffffffffffffffffffff167f8ad64a0ac7700dd8425ab0499f107cb6e2cd1581d803c5b8c1c79dcb8190b1af6000803373ffffffffffffffffffffffffffffffffffffffff1673ffffffffffffffffffffffffffffffffffffffff168152602001908152602001600020600101546040516102709190610dc5565b60405180910390a250565b60003382604051602001610290929190610d1b565b6040516020818303038152906040528051906020012060001c90506001600082815260200190815260200160002060030160009054906101000a900460ff161561030f576040517f08c379a000000000000000000000000000000000000000000000000000000000815260040161030690610d65565b60405180910390fd5b60405180608001604052808281526020013373ffffffffffffffffffffffffffffffffffffffff16815260200183815260200160011515815250600160008381526020019081526020016000206000820151816000015560208201518160010160006101000a81548173ffffffffffffffffffffffffffffffffffffffff021916908373ffffffffffffffffffffffffffffffffffffffff16021790555060408201518160020190805190602001906103c99291906108e8565b5060608201518160030160006101000a81548160ff021916908315150217905550905050600260003373ffffffffffffffffffffffffffffffffffffffff1673ffffffffffffffffffffffffffffffffffffffff1681526020019081526020016000208190806001815401808255809150506001900390600052602060002001600090919091909150557f20b331a7476f61849b1da6c4dab928456688acfc5b2a1860c817cdb2a78a7a8c81338460016040516104899493929190610de0565b60405180910390a15050565b60008060003373ffffffffffffffffffffffffffffffffffffffff1673ffffffffffffffffffffffffffffffffffffffff16815260200190815260200160002060010154905090565b60003411610521576040517f08c379a000000000000000000000000000000000000000000000000000000000815260040161051890610d85565b60405180910390fd5b346000803373ffffffffffffffffffffffffffffffffffffffff1673ffffffffffffffffffffffffffffffffffffffff16815260200190815260200160002060010160008282546105729190610ef3565b925050819055503373ffffffffffffffffffffffffffffffffffffffff167f8ad64a0ac7700dd8425ab0499f107cb6e2cd1581d803c5b8c1c79dcb8190b1af6000803373ffffffffffffffffffffffffffffffffffffffff1673ffffffffffffffffffffffffffffffffffffffff168152602001908152602001600020600101546040516106009190610dc5565b60405180910390a2565b60606000600260003373ffffffffffffffffffffffffffffffffffffffff1673ffffffffffffffffffffffffffffffffffffffff16815260200190815260200160002080549050905060008167ffffffffffffffff811115610695577f4e487b7100000000000000000000000000000000000000000000000000000000600052604160045260246000fd5b6040519080825280602002602001820160405280156106ce57816020015b6106bb61096e565b8152602001906001900390816106b35790505b50905060005b828110156108df5760016000600260003373ffffffffffffffffffffffffffffffffffffffff1673ffffffffffffffffffffffffffffffffffffffff1681526020019081526020016000208381548110610757577f4e487b7100000000000000000000000000000000000000000000000000000000600052603260045260246000fd5b90600052602060002001548152602001908152602001600020604051806080016040529081600082015481526020016001820160009054906101000a900473ffffffffffffffffffffffffffffffffffffffff1673ffffffffffffffffffffffffffffffffffffffff1673ffffffffffffffffffffffffffffffffffffffff1681526020016002820180546107eb90611007565b80601f016020809104026020016040519081016040528092919081815260200182805461081790611007565b80156108645780601f1061083957610100808354040283529160200191610864565b820191906000526020600020905b81548152906001019060200180831161084757829003601f168201915b505050505081526020016003820160009054906101000a900460ff1615151515815250508282815181106108c1577f4e487b7100000000000000000000000000000000000000000000000000000000600052603260045260246000fd5b602002602001018190525080806108d79061106a565b9150506106d4565b50809250505090565b8280546108f490611007565b90600052602060002090601f016020900481019282610916576000855561095d565b82601f1061092f57805160ff191683800117855561095d565b8280016001018555821561095d579182015b8281111561095c578251825591602001919060010190610941565b5b50905061096a91906109ae565b5090565b604051806080016040528060008152602001600073ffffffffffffffffffffffffffffffffffffffff168152602001606081526020016000151581525090565b5b808211156109c75760008160009055506001016109af565b5090565b60006109de6109d984610e51565b610e2c565b9050828152602081018484840111156109f657600080fd5b610a01848285610fc5565b509392505050565b600082601f830112610a1a57600080fd5b8135610a2a8482602086016109cb565b91505092915050565b600081359050610a4281611223565b92915050565b600060208284031215610a5a57600080fd5b600082013567ffffffffffffffff811115610a7457600080fd5b610a8084828501610a09565b91505092915050565b600060208284031215610a9b57600080fd5b6000610aa984828501610a33565b91505092915050565b6000610abe8383610c9a565b905092915050565b610acf81610f7d565b82525050565b610ade81610f7d565b82525050565b610af5610af082610f7d565b6110b3565b82525050565b6000610b0682610e92565b610b108185610eb5565b935083602082028501610b2285610e82565b8060005b85811015610b5e5784840389528151610b3f8582610ab2565b9450610b4a83610ea8565b925060208a01995050600181019050610b26565b50829750879550505050505092915050565b610b7981610f8f565b82525050565b610b8881610f8f565b82525050565b6000610b9982610e9d565b610ba38185610ec6565b9350610bb3818560208601610fd4565b610bbc81611164565b840191505092915050565b6000610bd282610e9d565b610bdc8185610ed7565b9350610bec818560208601610fd4565b610bf581611164565b840191505092915050565b6000610c0b82610e9d565b610c158185610ee8565b9350610c25818560208601610fd4565b80840191505092915050565b6000610c3e601f83610ed7565b9150610c4982611182565b602082019050919050565b6000610c61602a83610ed7565b9150610c6c826111ab565b604082019050919050565b6000610c84601483610ed7565b9150610c8f826111fa565b602082019050919050565b6000608083016000830151610cb26000860182610cfd565b506020830151610cc56020860182610ac6565b5060408301518482036040860152610cdd8282610b8e565b9150506060830151610cf26060860182610b70565b508091505092915050565b610d0681610fbb565b82525050565b610d1581610fbb565b82525050565b6000610d278285610ae4565b601482019150610d378284610c00565b91508190509392505050565b60006020820190508181036000830152610d5d8184610afb565b905092915050565b60006020820190508181036000830152610d7e81610c31565b9050919050565b60006020820190508181036000830152610d9e81610c54565b9050919050565b60006020820190508181036000830152610dbe81610c77565b9050919050565b6000602082019050610dda6000830184610d0c565b92915050565b6000608082019050610df56000830187610d0c565b610e026020830186610ad5565b8181036040830152610e148185610bc7565b9050610e236060830184610b7f565b95945050505050565b6000610e36610e47565b9050610e428282611039565b919050565b6000604051905090565b600067ffffffffffffffff821115610e6c57610e6b611135565b5b610e7582611164565b9050602081019050919050565b6000819050602082019050919050565b600081519050919050565b600081519050919050565b6000602082019050919050565b600082825260208201905092915050565b600082825260208201905092915050565b600082825260208201905092915050565b600081905092915050565b6000610efe82610fbb565b9150610f0983610fbb565b9250827fffffffffffffffffffffffffffffffffffffffffffffffffffffffffffffffff03821115610f3e57610f3d6110d7565b5b828201905092915050565b6000610f5482610fbb565b9150610f5f83610fbb565b925082821015610f7257610f716110d7565b5b828203905092915050565b6000610f8882610f9b565b9050919050565b60008115159050919050565b600073ffffffffffffffffffffffffffffffffffffffff82169050919050565b6000819050919050565b82818337600083830152505050565b60005b83811015610ff2578082015181840152602081019050610fd7565b83811115611001576000848401525b50505050565b6000600282049050600182168061101f57607f821691505b6020821081141561103357611032611106565b5b50919050565b61104282611164565b810181811067ffffffffffffffff8211171561106157611060611135565b5b80604052505050565b600061107582610fbb565b91507fffffffffffffffffffffffffffffffffffffffffffffffffffffffffffffffff8214156110a8576110a76110d7565b5b600182019050919050565b60006110be826110c5565b9050919050565b60006110d082611175565b9050919050565b7f4e487b7100000000000000000000000000000000000000000000000000000000600052601160045260246000fd5b7f4e487b7100000000000000000000000000000000000000000000000000000000600052602260045260246000fd5b7f4e487b7100000000000000000000000000000000000000000000000000000000600052604160045260246000fd5b6000601f19601f8301169050919050565b60008160601b9050919050565b7f5365727669636520636f646520697320616c72656164792070726573656e7400600082015250565b7f4465706f73697420616d6f756e742073686f756c64206265206772656174657260008201527f207468616e207a65726f00000000000000000000000000000000000000000000602082015250565b7f496e737566696369656e742042616c616e636521000000000000000000000000600082015250565b61122c81610fbb565b811461123757600080fd5b5056fea264697066735822122051171333088d60bbd4aec3630a041a6a8ec28b76568f376bb896cf6aab2447b364736f6c63430008040033",
  "immutableReferences": {},
  "source": "// SPDX-License-Identifier: UNLICENSED\n\npragma solidity 0.8.4;\n\nimport \"./UserAccount.sol\";\n\n/**\n * @title UserServices\n * @dev Extension of UserSmartAccount contract for users with Services\n */\ncontract UserServices is UserAccount {\n\n    struct Service {\n        uint256 serviceId;\n        address owner;\n        string serviceCode;\n        bool isPresent;\n    }\n\n    event ServiceCreated(uint256 serviceId, address owner, string serviceCode, bool isPresent);\n    \n    mapping (uint256 => Service) services;\n    mapping (address => uint256[]) ownerToServices;\n\n    /**\n    * @dev to allow only owner of the service for certian methods\n    * @param _serviceId id of the service\n     */\n    modifier isOwnerOfService(uint256 _serviceId) {\n        require(services[_serviceId].owner == msg.sender, \"User not the owner of the requested service\");\n        _;\n    }\n\n    /**\n    * @dev to allow only existing services\n    * @param _serviceId id of the service\n     */\n    modifier serviceIsPresent(uint256 _serviceId) {\n        require(services[_serviceId].isPresent, \"Service not present\");\n        _;\n    }\n\n    /**\n    * @dev create service for the user\n    * @param _serviceCode unique identifier for the service\n     */\n    function createService(string memory _serviceCode) external {\n        uint256 _serviceId = uint256(keccak256(abi.encodePacked(msg.sender, _serviceCode)));\n        require(!services[_serviceId].isPresent, \"Service code is already present\");\n\n        services[_serviceId] = Service(_serviceId, msg.sender, _serviceCode, true);\n        ownerToServices[msg.sender].push(_serviceId);\n        emit ServiceCreated(_serviceId, msg.sender, _serviceCode, true);\n    }\n\n    /**\n    * @dev fetch all the services owned by the user\n    * @return _ownedServices list of all services owned by the user\n     */\n    function getAllOwnedServices() public view returns(Service[] memory) {\n        uint256 numServices = ownerToServices[msg.sender].length;\n        Service[] memory _ownedServices = new Service[](numServices);\n        for (uint256 i = 0; i < numServices; i++) {\n            _ownedServices[i] = services[ownerToServices[msg.sender][i]];\n        }\n        return _ownedServices;\n    }\n}",
  "sourcePath": "/Users/zishansami102/Documents/projects/github/charger-contracts/contracts/UserServices.sol",
  "compiler": {
    "name": "solc",
    "version": "0.8.4+commit.c7e474f2.Emscripten.clang"
  },
  "schemaVersion": "3.4.3",
  "updatedAt": "2021-11-22T09:43:22.789Z",
  "devdoc": {
    "details": "Extension of UserSmartAccount contract for users with Services",
    "kind": "dev",
    "methods": {
      "createService(string)": {
        "details": "create service for the user",
        "params": {
          "_serviceCode": "unique identifier for the service"
        }
      },
      "deposit()": {
        "details": "Deposit ether in user's smart account"
      },
      "getAllOwnedServices()": {
        "details": "fetch all the services owned by the user",
        "returns": {
          "_0": "_ownedServices list of all services owned by the user"
        }
      },
      "getCurrentBalance()": {
        "details": "Retrieves the balance of the user",
        "returns": {
          "_balance": "_balance"
        }
      },
      "withdraw(uint256)": {
        "details": "Withdraw ether from user's smart account",
        "params": {
          "_amount": "value to withdraw from the user's balance"
        }
      }
    },
    "title": "UserServices",
    "version": 1
  },
  "userdoc": {
    "kind": "user",
    "methods": {},
    "version": 1
  }
}