{
  "contractName": "UserPlanSubscriptions",
  "abi": [
    {
      "anonymous": false,
      "inputs": [
        {
          "indexed": true,
          "internalType": "address",
          "name": "owner",
          "type": "address"
        },
        {
          "indexed": false,
          "internalType": "uint256",
          "name": "balance",
          "type": "uint256"
        }
      ],
      "name": "BalanceUpdated",
      "type": "event"
    },
    {
      "anonymous": false,
      "inputs": [
        {
          "indexed": false,
          "internalType": "uint256",
          "name": "planId",
          "type": "uint256"
        },
        {
          "indexed": false,
          "internalType": "uint256",
          "name": "serviceId",
          "type": "uint256"
        },
        {
          "indexed": false,
          "internalType": "string",
          "name": "planCode",
          "type": "string"
        },
        {
          "indexed": false,
          "internalType": "enum ServicePlans.BillingType",
          "name": "billingFrequency",
          "type": "uint8"
        },
        {
          "indexed": false,
          "internalType": "uint256",
          "name": "costPerBilling",
          "type": "uint256"
        }
      ],
      "name": "PlanCreated",
      "type": "event"
    },
    {
      "anonymous": false,
      "inputs": [
        {
          "indexed": false,
          "internalType": "uint256",
          "name": "serviceId",
          "type": "uint256"
        },
        {
          "indexed": false,
          "internalType": "address",
          "name": "owner",
          "type": "address"
        },
        {
          "indexed": false,
          "internalType": "string",
          "name": "serviceCode",
          "type": "string"
        },
        {
          "indexed": false,
          "internalType": "bool",
          "name": "isPresent",
          "type": "bool"
        }
      ],
      "name": "ServiceCreated",
      "type": "event"
    },
    {
      "anonymous": false,
      "inputs": [
        {
          "indexed": false,
          "internalType": "uint256",
          "name": "subscriptionId",
          "type": "uint256"
        },
        {
          "indexed": false,
          "internalType": "uint256",
          "name": "planId",
          "type": "uint256"
        },
        {
          "indexed": false,
          "internalType": "string",
          "name": "userIdHash",
          "type": "string"
        },
        {
          "indexed": false,
          "internalType": "address",
          "name": "userAddress",
          "type": "address"
        },
        {
          "indexed": false,
          "internalType": "uint256",
          "name": "lastSettledTime",
          "type": "uint256"
        },
        {
          "indexed": false,
          "internalType": "uint256",
          "name": "overdue",
          "type": "uint256"
        },
        {
          "indexed": false,
          "internalType": "bool",
          "name": "isActive",
          "type": "bool"
        }
      ],
      "name": "SubscriptionCreated",
      "type": "event"
    },
    {
      "inputs": [
        {
          "internalType": "uint256",
          "name": "_serviceId",
          "type": "uint256"
        },
        {
          "internalType": "string",
          "name": "_planCode",
          "type": "string"
        },
        {
          "internalType": "enum ServicePlans.BillingType",
          "name": "_billingFrequency",
          "type": "uint8"
        },
        {
          "internalType": "uint256",
          "name": "_costPerBilling",
          "type": "uint256"
        }
      ],
      "name": "createPlan",
      "outputs": [],
      "stateMutability": "nonpayable",
      "type": "function"
    },
    {
      "inputs": [
        {
          "internalType": "string",
          "name": "_serviceCode",
          "type": "string"
        }
      ],
      "name": "createService",
      "outputs": [],
      "stateMutability": "nonpayable",
      "type": "function"
    },
    {
      "inputs": [],
      "name": "deposit",
      "outputs": [],
      "stateMutability": "payable",
      "type": "function",
      "payable": true
    },
    {
      "inputs": [],
      "name": "getAllOwnedServices",
      "outputs": [
        {
          "components": [
            {
              "internalType": "uint256",
              "name": "serviceId",
              "type": "uint256"
            },
            {
              "internalType": "address",
              "name": "owner",
              "type": "address"
            },
            {
              "internalType": "string",
              "name": "serviceCode",
              "type": "string"
            },
            {
              "internalType": "bool",
              "name": "isPresent",
              "type": "bool"
            }
          ],
          "internalType": "struct UserServices.Service[]",
          "name": "",
          "type": "tuple[]"
        }
      ],
      "stateMutability": "view",
      "type": "function",
      "constant": true
    },
    {
      "inputs": [],
      "name": "getCurrentBalance",
      "outputs": [
        {
          "internalType": "uint256",
          "name": "_balance",
          "type": "uint256"
        }
      ],
      "stateMutability": "view",
      "type": "function",
      "constant": true
    },
    {
      "inputs": [
        {
          "internalType": "uint256",
          "name": "_serviceId",
          "type": "uint256"
        }
      ],
      "name": "getPlans",
      "outputs": [
        {
          "components": [
            {
              "internalType": "uint256",
              "name": "planId",
              "type": "uint256"
            },
            {
              "internalType": "string",
              "name": "planCode",
              "type": "string"
            },
            {
              "internalType": "string",
              "name": "serviceCode",
              "type": "string"
            },
            {
              "internalType": "enum ServicePlans.BillingType",
              "name": "billingFrequency",
              "type": "uint8"
            },
            {
              "internalType": "uint256",
              "name": "costPerBilling",
              "type": "uint256"
            }
          ],
          "internalType": "struct ServicePlans.PlanDetailsStruct[]",
          "name": "",
          "type": "tuple[]"
        }
      ],
      "stateMutability": "view",
      "type": "function",
      "constant": true
    },
    {
      "inputs": [
        {
          "internalType": "uint256",
          "name": "_amount",
          "type": "uint256"
        }
      ],
      "name": "withdraw",
      "outputs": [],
      "stateMutability": "nonpayable",
      "type": "function"
    },
    {
      "inputs": [
        {
          "internalType": "uint256",
          "name": "_planId",
          "type": "uint256"
        },
        {
          "internalType": "string",
          "name": "_userIdHash",
          "type": "string"
        }
      ],
      "name": "subscribe",
      "outputs": [],
      "stateMutability": "nonpayable",
      "type": "function"
    },
    {
      "inputs": [
        {
          "internalType": "uint256",
          "name": "_subscriptionId",
          "type": "uint256"
        }
      ],
      "name": "unsubscribe",
      "outputs": [],
      "stateMutability": "nonpayable",
      "type": "function"
    },
    {
      "inputs": [
        {
          "internalType": "uint256",
          "name": "_planId",
          "type": "uint256"
        }
      ],
      "name": "totalCollectableAmountFromPlan",
      "outputs": [
        {
          "internalType": "uint256",
          "name": "_collectableFromPlan",
          "type": "uint256"
        }
      ],
      "stateMutability": "view",
      "type": "function",
      "constant": true
    },
    {
      "inputs": [
        {
          "internalType": "uint256",
          "name": "_serviceId",
          "type": "uint256"
        }
      ],
      "name": "totalCollectableAmountFromService",
      "outputs": [
        {
          "internalType": "uint256",
          "name": "_collectableFromService",
          "type": "uint256"
        }
      ],
      "stateMutability": "view",
      "type": "function",
      "constant": true
    },
    {
      "inputs": [],
      "name": "totalCollectableAmountFromAllServices",
      "outputs": [
        {
          "internalType": "uint256",
          "name": "_totalCollectableAmount",
          "type": "uint256"
        }
      ],
      "stateMutability": "view",
      "type": "function",
      "constant": true
    },
    {
      "inputs": [
        {
          "internalType": "uint256",
          "name": "_planId",
          "type": "uint256"
        }
      ],
      "name": "collectDueFromAllSubscriptionsOfPlan",
      "outputs": [],
      "stateMutability": "nonpayable",
      "type": "function"
    },
    {
      "inputs": [
        {
          "internalType": "uint256",
          "name": "_serviceId",
          "type": "uint256"
        }
      ],
      "name": "collectDueFromAllPlansOfService",
      "outputs": [],
      "stateMutability": "nonpayable",
      "type": "function"
    },
    {
      "inputs": [],
      "name": "collectDueFromAllOwnedServices",
      "outputs": [],
      "stateMutability": "nonpayable",
      "type": "function"
    },
    {
      "inputs": [
        {
          "internalType": "uint256",
          "name": "_planId",
          "type": "uint256"
        }
      ],
      "name": "inactivateAllOverdueSubscriptionsOfPlan",
      "outputs": [],
      "stateMutability": "nonpayable",
      "type": "function"
    },
    {
      "inputs": [
        {
          "internalType": "uint256",
          "name": "_serviceId",
          "type": "uint256"
        }
      ],
      "name": "inactivateAllOverdueSubscriptionsOfService",
      "outputs": [],
      "stateMutability": "nonpayable",
      "type": "function"
    },
    {
      "inputs": [],
      "name": "inactivateAllOverdueSubscriptions",
      "outputs": [],
      "stateMutability": "nonpayable",
      "type": "function"
    },
    {
      "inputs": [],
      "name": "getSubsByUser",
      "outputs": [
        {
          "components": [
            {
              "internalType": "uint256",
              "name": "subscriptionId",
              "type": "uint256"
            },
            {
              "internalType": "string",
              "name": "serviceCode",
              "type": "string"
            },
            {
              "internalType": "string",
              "name": "planCode",
              "type": "string"
            },
            {
              "internalType": "enum ServicePlans.BillingType",
              "name": "billingFrequency",
              "type": "uint8"
            },
            {
              "internalType": "uint256",
              "name": "costPerBilling",
              "type": "uint256"
            },
            {
              "internalType": "string",
              "name": "userIdHash",
              "type": "string"
            },
            {
              "internalType": "uint256",
              "name": "amountDue",
              "type": "uint256"
            },
            {
              "internalType": "bool",
              "name": "isActive",
              "type": "bool"
            }
          ],
          "internalType": "struct UserPlanSubscriptions.UserSubsDetails[]",
          "name": "",
          "type": "tuple[]"
        }
      ],
      "stateMutability": "view",
      "type": "function",
      "constant": true
    },
    {
      "inputs": [],
      "name": "totalAmountDueToAllSubs",
      "outputs": [
        {
          "internalType": "uint256",
          "name": "_totalDue",
          "type": "uint256"
        }
      ],
      "stateMutability": "view",
      "type": "function",
      "constant": true
    },
    {
      "inputs": [],
      "name": "getAllOwnedServicesDetails",
      "outputs": [
        {
          "components": [
            {
              "internalType": "uint256",
              "name": "serviceId",
              "type": "uint256"
            },
            {
              "internalType": "string",
              "name": "serviceCode",
              "type": "string"
            },
            {
              "internalType": "uint256",
              "name": "numActivePlans",
              "type": "uint256"
            },
            {
              "internalType": "uint256",
              "name": "numActiveSubs",
              "type": "uint256"
            },
            {
              "internalType": "uint256",
              "name": "serviceCollectable",
              "type": "uint256"
            }
          ],
          "internalType": "struct UserPlanSubscriptions.ServiceDetails[]",
          "name": "",
          "type": "tuple[]"
        }
      ],
      "stateMutability": "view",
      "type": "function",
      "constant": true
    },
    {
      "inputs": [],
      "name": "getAllPlans",
      "outputs": [
        {
          "components": [
            {
              "internalType": "uint256",
              "name": "planId",
              "type": "uint256"
            },
            {
              "internalType": "string",
              "name": "planCode",
              "type": "string"
            },
            {
              "internalType": "string",
              "name": "serviceCode",
              "type": "string"
            },
            {
              "internalType": "enum ServicePlans.BillingType",
              "name": "billingFrequency",
              "type": "uint8"
            },
            {
              "internalType": "uint256",
              "name": "costPerBilling",
              "type": "uint256"
            },
            {
              "internalType": "uint256",
              "name": "numActiveSubs",
              "type": "uint256"
            },
            {
              "internalType": "uint256",
              "name": "planCollectable",
              "type": "uint256"
            }
          ],
          "internalType": "struct UserPlanSubscriptions.PlanDetails[]",
          "name": "",
          "type": "tuple[]"
        }
      ],
      "stateMutability": "view",
      "type": "function",
      "constant": true
    }
  ],
  "bytecode": "0x608060405234801561001057600080fd5b50615a9e80620000216000396000f3fe6080604052600436106101355760003560e01c8063a5749710116100ab578063d0e30db01161006f578063d0e30db0146103e8578063d3000ad8146103f2578063d3f3ed5d1461041b578063d7bc8d5e14610446578063e26de85314610471578063feb5475e1461049c57610135565b8063a574971014610305578063ad0b27fb14610330578063bc0d69ef14610359578063be1a684214610382578063c1ddbe34146103ab57610135565b806346dc9c79116100fd57806346dc9c79146101f7578063525780121461023457806365580a291461025d57806386d4fbd31461029a578063922b0d3d146102c357806398de396a146102da57610135565b806303765fab1461013a5780630ae1f8e6146101515780631f6393a01461017a5780632ac61cdc146101a55780632e1a7d4d146101ce575b600080fd5b34801561014657600080fd5b5061014f6104c7565b005b34801561015d57600080fd5b5061017860048036038101906101739190614590565b61057c565b005b34801561018657600080fd5b5061018f610787565b60405161019c9190615141565b60405180910390f35b3480156101b157600080fd5b506101cc60048036038101906101c79190614590565b610889565b005b3480156101da57600080fd5b506101f560048036038101906101f09190614590565b610978565b005b34801561020357600080fd5b5061021e60048036038101906102199190614590565b610af2565b60405161022b9190615141565b60405180910390f35b34801561024057600080fd5b5061025b6004803603810190610256919061454f565b610bf2565b005b34801561026957600080fd5b50610284600480360381019061027f9190614590565b610e0c565b6040516102919190614f57565b60405180910390f35b3480156102a657600080fd5b506102c160048036038101906102bc91906145b9565b611232565b005b3480156102cf57600080fd5b506102d86117ce565b005b3480156102e657600080fd5b506102ef611883565b6040516102fc9190614f79565b60405180910390f35b34801561031157600080fd5b5061031a611e0b565b6040516103279190615141565b60405180910390f35b34801561033c57600080fd5b5061035760048036038101906103529190614590565b611e54565b005b34801561036557600080fd5b50610380600480360381019061037b9190614590565b612377565b005b34801561038e57600080fd5b506103a960048036038101906103a4919061460d565b61250c565b005b3480156103b757600080fd5b506103d260048036038101906103cd9190614590565b61285c565b6040516103df9190615141565b60405180910390f35b6103f0612a02565b005b3480156103fe57600080fd5b5061041960048036038101906104149190614590565b612b2e565b005b34801561042757600080fd5b50610430612cc3565b60405161043d9190614fdf565b60405180910390f35b34801561045257600080fd5b5061045b6131c7565b6040516104689190615141565b60405180910390f35b34801561047d57600080fd5b5061048661328b565b6040516104939190614f9b565b60405180910390f35b3480156104a857600080fd5b506104b16135d7565b6040516104be9190614fbd565b60405180910390f35b6000600260003373ffffffffffffffffffffffffffffffffffffffff1673ffffffffffffffffffffffffffffffffffffffff168152602001908152602001600020905060005b818054905081101561057857610565828281548110610555577f4e487b7100000000000000000000000000000000000000000000000000000000600052603260045260246000fd5b9060005260206000200154612377565b80806105709061565c565b91505061050d565b5050565b806003600082815260200190815260200160002060050160009054906101000a900460ff166105e0576040517f08c379a00000000000000000000000000000000000000000000000000000000081526004016105d7906150c1565b60405180910390fd5b600060066000848152602001908152602001600020905060005b81805490508110156107815760008060056000858581548110610646577f4e487b7100000000000000000000000000000000000000000000000000000000600052603260045260246000fd5b9060005260206000200154815260200190815260200160002060030160009054906101000a900473ffffffffffffffffffffffffffffffffffffffff1673ffffffffffffffffffffffffffffffffffffffff1673ffffffffffffffffffffffffffffffffffffffff16815260200190815260200160002060010154600560008484815481106106fe577f4e487b7100000000000000000000000000000000000000000000000000000000600052603260045260246000fd5b9060005260206000200154815260200190815260200160002060050154111561076e5761076d82828154811061075d577f4e487b7100000000000000000000000000000000000000000000000000000000600052603260045260246000fd5b9060005260206000200154611e54565b5b80806107799061565c565b9150506105fa565b50505050565b600080600760003373ffffffffffffffffffffffffffffffffffffffff1673ffffffffffffffffffffffffffffffffffffffff16815260200190815260200160002080549050905060005b8181101561088457610864600760003373ffffffffffffffffffffffffffffffffffffffff1673ffffffffffffffffffffffffffffffffffffffff1681526020019081526020016000208281548110610854577f4e487b7100000000000000000000000000000000000000000000000000000000600052603260045260246000fd5b90600052602060002001546138b5565b8361086f9190615423565b9250808061087c9061565c565b9150506107d2565b505090565b806003600082815260200190815260200160002060050160009054906101000a900460ff166108ed576040517f08c379a00000000000000000000000000000000000000000000000000000000081526004016108e4906150c1565b60405180910390fd5b600060066000848152602001908152602001600020905060005b81805490508110156109725761095f82828154811061094f577f4e487b7100000000000000000000000000000000000000000000000000000000600052603260045260246000fd5b9060005260206000200154613e9f565b808061096a9061565c565b915050610907565b50505050565b610980611e0b565b81106109c1576040517f08c379a00000000000000000000000000000000000000000000000000000000081526004016109b890615081565b60405180910390fd5b806000803373ffffffffffffffffffffffffffffffffffffffff1673ffffffffffffffffffffffffffffffffffffffff1681526020019081526020016000206001016000828254610a129190615504565b925050819055503373ffffffffffffffffffffffffffffffffffffffff166108fc829081150290604051600060405180830381858888f19350505050158015610a5f573d6000803e3d6000fd5b503373ffffffffffffffffffffffffffffffffffffffff167f8ad64a0ac7700dd8425ab0499f107cb6e2cd1581d803c5b8c1c79dcb8190b1af6000803373ffffffffffffffffffffffffffffffffffffffff1673ffffffffffffffffffffffffffffffffffffffff16815260200190815260200160002060010154604051610ae79190615141565b60405180910390a250565b6000816003600082815260200190815260200160002060050160009054906101000a900460ff16610b58576040517f08c379a0000000000000000000000000000000000000000000000000000000008152600401610b4f906150c1565b60405180910390fd5b600060066000858152602001908152602001600020905060005b8180549050811015610bea57610bca828281548110610bba577f4e487b7100000000000000000000000000000000000000000000000000000000600052603260045260246000fd5b90600052602060002001546138b5565b84610bd59190615423565b93508080610be29061565c565b915050610b72565b505050919050565b60003382604051602001610c07929190614eb9565b6040516020818303038152906040528051906020012060001c90506001600082815260200190815260200160002060030160009054906101000a900460ff1615610c86576040517f08c379a0000000000000000000000000000000000000000000000000000000008152600401610c7d90615001565b60405180910390fd5b60405180608001604052808281526020013373ffffffffffffffffffffffffffffffffffffffff16815260200183815260200160011515815250600160008381526020019081526020016000206000820151816000015560208201518160010160006101000a81548173ffffffffffffffffffffffffffffffffffffffff021916908373ffffffffffffffffffffffffffffffffffffffff1602179055506040820151816002019080519060200190610d40929190614250565b5060608201518160030160006101000a81548160ff021916908315150217905550905050600260003373ffffffffffffffffffffffffffffffffffffffff1673ffffffffffffffffffffffffffffffffffffffff1681526020019081526020016000208190806001815401808255809150506001900390600052602060002001600090919091909150557f20b331a7476f61849b1da6c4dab928456688acfc5b2a1860c817cdb2a78a7a8c8133846001604051610e00949392919061515c565b60405180910390a15050565b6060816001600082815260200190815260200160002060030160009054906101000a900460ff16610e72576040517f08c379a0000000000000000000000000000000000000000000000000000000008152600401610e69906150e1565b60405180910390fd5b823373ffffffffffffffffffffffffffffffffffffffff166001600083815260200190815260200160002060010160009054906101000a900473ffffffffffffffffffffffffffffffffffffffff1673ffffffffffffffffffffffffffffffffffffffff1614610f17576040517f08c379a0000000000000000000000000000000000000000000000000000000008152600401610f0e90615021565b60405180910390fd5b60006004600086815260200190815260200160002080549050905060008167ffffffffffffffff811115610f74577f4e487b7100000000000000000000000000000000000000000000000000000000600052604160045260246000fd5b604051908082528060200260200182016040528015610fad57816020015b610f9a6142d6565b815260200190600190039081610f925790505b50905060005b8281101561122557600060036000600460008b8152602001908152602001600020848154811061100c577f4e487b7100000000000000000000000000000000000000000000000000000000600052603260045260246000fd5b9060005260206000200154815260200190815260200160002090506040518060a001604052808260000154815260200182600201805461104b906155f9565b80601f0160208091040260200160405190810160405280929190818152602001828054611077906155f9565b80156110c45780601f10611099576101008083540402835291602001916110c4565b820191906000526020600020905b8154815290600101906020018083116110a757829003601f168201915b50505050508152602001600160008460010154815260200190815260200160002060020180546110f3906155f9565b80601f016020809104026020016040519081016040528092919081815260200182805461111f906155f9565b801561116c5780601f106111415761010080835404028352916020019161116c565b820191906000526020600020905b81548152906001019060200180831161114f57829003601f168201915b505050505081526020018260030160009054906101000a900460ff1660068111156111c0577f4e487b7100000000000000000000000000000000000000000000000000000000600052602160045260246000fd5b81526020018260040154815250838381518110611206577f4e487b7100000000000000000000000000000000000000000000000000000000600052603260045260246000fd5b602002602001018190525050808061121d9061565c565b915050610fb3565b5080945050505050919050565b816003600082815260200190815260200160002060050160009054906101000a900460ff16611296576040517f08c379a000000000000000000000000000000000000000000000000000000000815260040161128d906150c1565b60405180910390fd5b3373ffffffffffffffffffffffffffffffffffffffff16600160006003600087815260200190815260200160002060010154815260200190815260200160002060010160009054906101000a900473ffffffffffffffffffffffffffffffffffffffff1673ffffffffffffffffffffffffffffffffffffffff161415611351576040517f08c379a000000000000000000000000000000000000000000000000000000000815260040161134890615101565b60405180910390fd5b60005b600760003373ffffffffffffffffffffffffffffffffffffffff1673ffffffffffffffffffffffffffffffffffffffff168152602001908152602001600020805490508110156114b75760036000858152602001908152602001600020600101546003600060056000600760003373ffffffffffffffffffffffffffffffffffffffff1673ffffffffffffffffffffffffffffffffffffffff1681526020019081526020016000208681548110611434577f4e487b7100000000000000000000000000000000000000000000000000000000600052603260045260246000fd5b906000526020600020015481526020019081526020016000206001015481526020019081526020016000206001015414156114a4576040517f08c379a000000000000000000000000000000000000000000000000000000000815260040161149b90615061565b60405180910390fd5b80806114af9061565c565b915050611354565b5060008383336040516020016114cf93929190614f1e565b6040516020818303038152906040528051906020012060001c90506005600082815260200190815260200160002060060160019054906101000a900460ff16156115a95761151c81613e9f565b6000600560008381526020019081526020016000206005015414611575576040517f08c379a000000000000000000000000000000000000000000000000000000000815260040161156c906150a1565b60405180910390fd5b60016005600083815260200190815260200160002060060160006101000a81548160ff021916908315150217905550611728565b6040518061010001604052808281526020018581526020018481526020013373ffffffffffffffffffffffffffffffffffffffff16815260200142815260200160008152602001600115158152602001600115158152506005600083815260200190815260200160002060008201518160000155602082015181600101556040820151816002019080519060200190611643929190614250565b5060608201518160030160006101000a81548173ffffffffffffffffffffffffffffffffffffffff021916908373ffffffffffffffffffffffffffffffffffffffff1602179055506080820151816004015560a0820151816005015560c08201518160060160006101000a81548160ff02191690831515021790555060e08201518160060160016101000a81548160ff0219169083151502179055509050507f0eb7e390b39e8c2c23c7f1d28c6d40850c1ba8a092f6c73b262f1825302e812081858533426000600160405161171f97969594939291906151a8565b60405180910390a15b60066000858152602001908152602001600020819080600181540180825580915050600190039060005260206000200160009091909190915055600760003373ffffffffffffffffffffffffffffffffffffffff1673ffffffffffffffffffffffffffffffffffffffff16815260200190815260200160002081908060018154018082558091505060019003906000526020600020016000909190919091505550505050565b6000600260003373ffffffffffffffffffffffffffffffffffffffff1673ffffffffffffffffffffffffffffffffffffffff168152602001908152602001600020905060005b818054905081101561187f5761186c82828154811061185c577f4e487b7100000000000000000000000000000000000000000000000000000000600052603260045260246000fd5b9060005260206000200154612b2e565b80806118779061565c565b915050611814565b5050565b60606000600260003373ffffffffffffffffffffffffffffffffffffffff1673ffffffffffffffffffffffffffffffffffffffff1681526020019081526020016000208054905090506000805b828110156119905760046000600260003373ffffffffffffffffffffffffffffffffffffffff1673ffffffffffffffffffffffffffffffffffffffff1681526020019081526020016000208381548110611953577f4e487b7100000000000000000000000000000000000000000000000000000000600052603260045260246000fd5b90600052602060002001548152602001908152602001600020805490508261197b9190615423565b915080806119889061565c565b9150506118d0565b5060008167ffffffffffffffff8111156119d3577f4e487b7100000000000000000000000000000000000000000000000000000000600052604160045260246000fd5b604051908082528060200260200182016040528015611a0c57816020015b6119f961433d565b8152602001906001900390816119f15790505b5090506000805b84811015611e0057600060046000600260003373ffffffffffffffffffffffffffffffffffffffff1673ffffffffffffffffffffffffffffffffffffffff1681526020019081526020016000208481548110611a98577f4e487b7100000000000000000000000000000000000000000000000000000000600052603260045260246000fd5b9060005260206000200154815260200190815260200160002080549050905060005b81811015611deb5760006003600060046000600260003373ffffffffffffffffffffffffffffffffffffffff1673ffffffffffffffffffffffffffffffffffffffff1681526020019081526020016000208881548110611b43577f4e487b7100000000000000000000000000000000000000000000000000000000600052603260045260246000fd5b906000526020600020015481526020019081526020016000208481548110611b94577f4e487b7100000000000000000000000000000000000000000000000000000000600052603260045260246000fd5b9060005260206000200154815260200190815260200160002090506040518060e0016040528082600001548152602001826002018054611bd3906155f9565b80601f0160208091040260200160405190810160405280929190818152602001828054611bff906155f9565b8015611c4c5780601f10611c2157610100808354040283529160200191611c4c565b820191906000526020600020905b815481529060010190602001808311611c2f57829003601f168201915b5050505050815260200160016000846001015481526020019081526020016000206002018054611c7b906155f9565b80601f0160208091040260200160405190810160405280929190818152602001828054611ca7906155f9565b8015611cf45780601f10611cc957610100808354040283529160200191611cf4565b820191906000526020600020905b815481529060010190602001808311611cd757829003601f168201915b505050505081526020018260030160009054906101000a900460ff166006811115611d48577f4e487b7100000000000000000000000000000000000000000000000000000000600052602160045260246000fd5b8152602001826004015481526020016006600084600001548152602001908152602001600020805490508152602001611d848360000154610af2565b815250868680611d939061565c565b975081518110611dcc577f4e487b7100000000000000000000000000000000000000000000000000000000600052603260045260246000fd5b6020026020010181905250508080611de39061565c565b915050611aba565b50508080611df89061565c565b915050611a13565b508194505050505090565b60008060003373ffffffffffffffffffffffffffffffffffffffff1673ffffffffffffffffffffffffffffffffffffffff16815260200190815260200160002060010154905090565b806005600082815260200190815260200160002060060160019054906101000a900460ff16611e8257600080fd5b816005600082815260200190815260200160002060060160019054906101000a900460ff168015611ed357506005600082815260200190815260200160002060060160009054906101000a900460ff165b611edc57600080fd5b823373ffffffffffffffffffffffffffffffffffffffff166005600083815260200190815260200160002060030160009054906101000a900473ffffffffffffffffffffffffffffffffffffffff1673ffffffffffffffffffffffffffffffffffffffff161480611fda57503373ffffffffffffffffffffffffffffffffffffffff1660016000600360006005600087815260200190815260200160002060010154815260200190815260200160002060010154815260200190815260200160002060010160009054906101000a900473ffffffffffffffffffffffffffffffffffffffff1673ffffffffffffffffffffffffffffffffffffffff16145b611fe357600080fd5b611fec84613e9f565b60006005600086815260200190815260200160002060060160006101000a81548160ff02191690831515021790555060006006600060056000888152602001908152602001600020600101548152602001908152602001600020905060005b818054905081101561219e5785828281548110612091577f4e487b7100000000000000000000000000000000000000000000000000000000600052603260045260246000fd5b9060005260206000200154141561218b5781600183805490506120b49190615504565b815481106120eb577f4e487b7100000000000000000000000000000000000000000000000000000000600052603260045260246000fd5b906000526020600020015482828154811061212f577f4e487b7100000000000000000000000000000000000000000000000000000000600052603260045260246000fd5b906000526020600020018190555081805480612174577f4e487b7100000000000000000000000000000000000000000000000000000000600052603160045260246000fd5b600190038181906000526020600020016000905590555b80806121969061565c565b91505061204b565b506000600760006005600089815260200190815260200160002060030160009054906101000a900473ffffffffffffffffffffffffffffffffffffffff1673ffffffffffffffffffffffffffffffffffffffff1673ffffffffffffffffffffffffffffffffffffffff168152602001908152602001600020905060005b818054905081101561236e5786828281548110612261577f4e487b7100000000000000000000000000000000000000000000000000000000600052603260045260246000fd5b9060005260206000200154141561235b5781600183805490506122849190615504565b815481106122bb577f4e487b7100000000000000000000000000000000000000000000000000000000600052603260045260246000fd5b90600052602060002001548282815481106122ff577f4e487b7100000000000000000000000000000000000000000000000000000000600052603260045260246000fd5b906000526020600020018190555081805480612344577f4e487b7100000000000000000000000000000000000000000000000000000000600052603160045260246000fd5b600190038181906000526020600020016000905590555b80806123669061565c565b91505061221b565b50505050505050565b806001600082815260200190815260200160002060030160009054906101000a900460ff166123db576040517f08c379a00000000000000000000000000000000000000000000000000000000081526004016123d2906150e1565b60405180910390fd5b813373ffffffffffffffffffffffffffffffffffffffff166001600083815260200190815260200160002060010160009054906101000a900473ffffffffffffffffffffffffffffffffffffffff1673ffffffffffffffffffffffffffffffffffffffff1614612480576040517f08c379a000000000000000000000000000000000000000000000000000000000815260040161247790615021565b60405180910390fd5b600060046000858152602001908152602001600020905060005b8180549050811015612505576124f28282815481106124e2577f4e487b7100000000000000000000000000000000000000000000000000000000600052603260045260246000fd5b906000526020600020015461057c565b80806124fd9061565c565b91505061249a565b5050505050565b836001600082815260200190815260200160002060030160009054906101000a900460ff16612570576040517f08c379a0000000000000000000000000000000000000000000000000000000008152600401612567906150e1565b60405180910390fd5b843373ffffffffffffffffffffffffffffffffffffffff166001600083815260200190815260200160002060010160009054906101000a900473ffffffffffffffffffffffffffffffffffffffff1673ffffffffffffffffffffffffffffffffffffffff1614612615576040517f08c379a000000000000000000000000000000000000000000000000000000000815260040161260c90615021565b60405180910390fd5b600086858560405160200161262c93929190614ee1565b6040516020818303038152906040528051906020012060001c90506003600082815260200190815260200160002060050160009054906101000a900460ff16156126ab576040517f08c379a00000000000000000000000000000000000000000000000000000000081526004016126a290615121565b60405180910390fd5b6040518060c00160405280828152602001888152602001878152602001866006811115612701577f4e487b7100000000000000000000000000000000000000000000000000000000600052602160045260246000fd5b8152602001858152602001600115158152506003600083815260200190815260200160002060008201518160000155602082015181600101556040820151816002019080519060200190612756929190614250565b5060608201518160030160006101000a81548160ff021916908360068111156127a8577f4e487b7100000000000000000000000000000000000000000000000000000000600052602160045260246000fd5b02179055506080820151816004015560a08201518160050160006101000a81548160ff021916908315150217905550905050600460008881526020019081526020016000208190806001815401808255809150506001900390600052602060002001600090919091909150557f0dda989d88e16176e2e7d349a68742ccada15c84d994e50983680295280c5c63818888888860405161284b95949392919061521e565b60405180910390a150505050505050565b6000816001600082815260200190815260200160002060030160009054906101000a900460ff166128c2576040517f08c379a00000000000000000000000000000000000000000000000000000000081526004016128b9906150e1565b60405180910390fd5b823373ffffffffffffffffffffffffffffffffffffffff166001600083815260200190815260200160002060010160009054906101000a900473ffffffffffffffffffffffffffffffffffffffff1673ffffffffffffffffffffffffffffffffffffffff1614612967576040517f08c379a000000000000000000000000000000000000000000000000000000000815260040161295e90615021565b60405180910390fd5b600060046000868152602001908152602001600020905060005b81805490508110156129f9576129d98282815481106129c9577f4e487b7100000000000000000000000000000000000000000000000000000000600052603260045260246000fd5b9060005260206000200154610af2565b856129e49190615423565b945080806129f19061565c565b915050612981565b50505050919050565b60003411612a45576040517f08c379a0000000000000000000000000000000000000000000000000000000008152600401612a3c90615041565b60405180910390fd5b346000803373ffffffffffffffffffffffffffffffffffffffff1673ffffffffffffffffffffffffffffffffffffffff1681526020019081526020016000206001016000828254612a969190615423565b925050819055503373ffffffffffffffffffffffffffffffffffffffff167f8ad64a0ac7700dd8425ab0499f107cb6e2cd1581d803c5b8c1c79dcb8190b1af6000803373ffffffffffffffffffffffffffffffffffffffff1673ffffffffffffffffffffffffffffffffffffffff16815260200190815260200160002060010154604051612b249190615141565b60405180910390a2565b806001600082815260200190815260200160002060030160009054906101000a900460ff16612b92576040517f08c379a0000000000000000000000000000000000000000000000000000000008152600401612b89906150e1565b60405180910390fd5b813373ffffffffffffffffffffffffffffffffffffffff166001600083815260200190815260200160002060010160009054906101000a900473ffffffffffffffffffffffffffffffffffffffff1673ffffffffffffffffffffffffffffffffffffffff1614612c37576040517f08c379a0000000000000000000000000000000000000000000000000000000008152600401612c2e90615021565b60405180910390fd5b600060046000858152602001908152602001600020905060005b8180549050811015612cbc57612ca9828281548110612c99577f4e487b7100000000000000000000000000000000000000000000000000000000600052603260045260246000fd5b9060005260206000200154610889565b8080612cb49061565c565b915050612c51565b5050505050565b60606000600760003373ffffffffffffffffffffffffffffffffffffffff1673ffffffffffffffffffffffffffffffffffffffff16815260200190815260200160002080549050905060008167ffffffffffffffff811115612d4e577f4e487b7100000000000000000000000000000000000000000000000000000000600052604160045260246000fd5b604051908082528060200260200182016040528015612d8757816020015b612d746143b2565b815260200190600190039081612d6c5790505b50905060005b828110156131be57600060056000600760003373ffffffffffffffffffffffffffffffffffffffff1673ffffffffffffffffffffffffffffffffffffffff1681526020019081526020016000208481548110612e12577f4e487b7100000000000000000000000000000000000000000000000000000000600052603260045260246000fd5b906000526020600020015481526020019081526020016000209050604051806101000160405280826000015481526020016001600060036000866001015481526020019081526020016000206001015481526020019081526020016000206002018054612e7e906155f9565b80601f0160208091040260200160405190810160405280929190818152602001828054612eaa906155f9565b8015612ef75780601f10612ecc57610100808354040283529160200191612ef7565b820191906000526020600020905b815481529060010190602001808311612eda57829003601f168201915b5050505050815260200160036000846001015481526020019081526020016000206002018054612f26906155f9565b80601f0160208091040260200160405190810160405280929190818152602001828054612f52906155f9565b8015612f9f5780601f10612f7457610100808354040283529160200191612f9f565b820191906000526020600020905b815481529060010190602001808311612f8257829003601f168201915b50505050508152602001600360008460010154815260200190815260200160002060030160009054906101000a900460ff166006811115613009577f4e487b7100000000000000000000000000000000000000000000000000000000600052602160045260246000fd5b8152602001600360008460010154815260200190815260200160002060040154815260200182600201805461303d906155f9565b80601f0160208091040260200160405190810160405280929190818152602001828054613069906155f9565b80156130b65780601f1061308b576101008083540402835291602001916130b6565b820191906000526020600020905b81548152906001019060200180831161309957829003601f168201915b5050505050815260200161314a600760003373ffffffffffffffffffffffffffffffffffffffff1673ffffffffffffffffffffffffffffffffffffffff168152602001908152602001600020858154811061313a577f4e487b7100000000000000000000000000000000000000000000000000000000600052603260045260246000fd5b90600052602060002001546138b5565b81526020018260060160009054906101000a900460ff16151581525083838151811061319f577f4e487b7100000000000000000000000000000000000000000000000000000000600052603260045260246000fd5b60200260200101819052505080806131b69061565c565b915050612d8d565b50809250505090565b600080600260003373ffffffffffffffffffffffffffffffffffffffff1673ffffffffffffffffffffffffffffffffffffffff168152602001908152602001600020905060005b818054905081101561328657613266828281548110613256577f4e487b7100000000000000000000000000000000000000000000000000000000600052603260045260246000fd5b906000526020600020015461285c565b836132719190615423565b9250808061327e9061565c565b91505061320e565b505090565b60606000600260003373ffffffffffffffffffffffffffffffffffffffff1673ffffffffffffffffffffffffffffffffffffffff16815260200190815260200160002080549050905060008167ffffffffffffffff811115613316577f4e487b7100000000000000000000000000000000000000000000000000000000600052604160045260246000fd5b60405190808252806020026020018201604052801561334f57816020015b61333c614431565b8152602001906001900390816133345790505b50905060005b828110156135ce576000600260003373ffffffffffffffffffffffffffffffffffffffff1673ffffffffffffffffffffffffffffffffffffffff16815260200190815260200160002082815481106133d6577f4e487b7100000000000000000000000000000000000000000000000000000000600052603260045260246000fd5b906000526020600020015490506000805b60046000848152602001908152602001600020805490508110156134915760066000600460008681526020019081526020016000208381548110613454577f4e487b7100000000000000000000000000000000000000000000000000000000600052603260045260246000fd5b90600052602060002001548152602001908152602001600020805490508261347c9190615423565b915080806134899061565c565b9150506133e7565b506040518060a001604052808381526020016001600085815260200190815260200160002060020180546134c4906155f9565b80601f01602080910402602001604051908101604052809291908181526020018280546134f0906155f9565b801561353d5780601f106135125761010080835404028352916020019161353d565b820191906000526020600020905b81548152906001019060200180831161352057829003601f168201915b50505050508152602001600460008581526020019081526020016000208054905081526020018281526020016135728461285c565b8152508484815181106135ae577f4e487b7100000000000000000000000000000000000000000000000000000000600052603260045260246000fd5b6020026020010181905250505080806135c69061565c565b915050613355565b50809250505090565b60606000600260003373ffffffffffffffffffffffffffffffffffffffff1673ffffffffffffffffffffffffffffffffffffffff16815260200190815260200160002080549050905060008167ffffffffffffffff811115613662577f4e487b7100000000000000000000000000000000000000000000000000000000600052604160045260246000fd5b60405190808252806020026020018201604052801561369b57816020015b613688614460565b8152602001906001900390816136805790505b50905060005b828110156138ac5760016000600260003373ffffffffffffffffffffffffffffffffffffffff1673ffffffffffffffffffffffffffffffffffffffff1681526020019081526020016000208381548110613724577f4e487b7100000000000000000000000000000000000000000000000000000000600052603260045260246000fd5b90600052602060002001548152602001908152602001600020604051806080016040529081600082015481526020016001820160009054906101000a900473ffffffffffffffffffffffffffffffffffffffff1673ffffffffffffffffffffffffffffffffffffffff1673ffffffffffffffffffffffffffffffffffffffff1681526020016002820180546137b8906155f9565b80601f01602080910402602001604051908101604052809291908181526020018280546137e4906155f9565b80156138315780601f1061380657610100808354040283529160200191613831565b820191906000526020600020905b81548152906001019060200180831161381457829003601f168201915b505050505081526020016003820160009054906101000a900460ff16151515158152505082828151811061388e577f4e487b7100000000000000000000000000000000000000000000000000000000600052603260045260246000fd5b602002602001018190525080806138a49061565c565b9150506136a1565b50809250505090565b6000816005600082815260200190815260200160002060060160019054906101000a900460ff166138e557600080fd5b823373ffffffffffffffffffffffffffffffffffffffff166005600083815260200190815260200160002060030160009054906101000a900473ffffffffffffffffffffffffffffffffffffffff1673ffffffffffffffffffffffffffffffffffffffff1614806139e357503373ffffffffffffffffffffffffffffffffffffffff1660016000600360006005600087815260200190815260200160002060010154815260200190815260200160002060010154815260200190815260200160002060010160009054906101000a900473ffffffffffffffffffffffffffffffffffffffff1673ffffffffffffffffffffffffffffffffffffffff16145b6139ec57600080fd5b60006005600086815260200190815260200160002090508060060160009054906101000a900460ff1615613e73576000600360008360010154815260200190815260200160002060030160009054906101000a900460ff169050600060036000846001015481526020019081526020016000206004015490506000836004015442613a779190615504565b905060006006811115613ab3577f4e487b7100000000000000000000000000000000000000000000000000000000600052602160045260246000fd5b836006811115613aec577f4e487b7100000000000000000000000000000000000000000000000000000000600052602160045260246000fd5b1415613b0657603c81613aff9190615479565b9050613e61565b60016006811115613b40577f4e487b7100000000000000000000000000000000000000000000000000000000600052602160045260246000fd5b836006811115613b79577f4e487b7100000000000000000000000000000000000000000000000000000000600052602160045260246000fd5b1415613b9457610e1081613b8d9190615479565b9050613e60565b60026006811115613bce577f4e487b7100000000000000000000000000000000000000000000000000000000600052602160045260246000fd5b836006811115613c07577f4e487b7100000000000000000000000000000000000000000000000000000000600052602160045260246000fd5b1415613c23576201518081613c1c9190615479565b9050613e5f565b60036006811115613c5d577f4e487b7100000000000000000000000000000000000000000000000000000000600052602160045260246000fd5b836006811115613c96577f4e487b7100000000000000000000000000000000000000000000000000000000600052602160045260246000fd5b1415613cb25762093a8081613cab9190615479565b9050613e5e565b60046006811115613cec577f4e487b7100000000000000000000000000000000000000000000000000000000600052602160045260246000fd5b836006811115613d25577f4e487b7100000000000000000000000000000000000000000000000000000000600052602160045260246000fd5b1415613d415762278d0081613d3a9190615479565b9050613e5d565b60056006811115613d7b577f4e487b7100000000000000000000000000000000000000000000000000000000600052602160045260246000fd5b836006811115613db4577f4e487b7100000000000000000000000000000000000000000000000000000000600052602160045260246000fd5b1415613dd0576276a70081613dc99190615479565b9050613e5c565b600680811115613e09577f4e487b7100000000000000000000000000000000000000000000000000000000600052602160045260246000fd5b836006811115613e42577f4e487b7100000000000000000000000000000000000000000000000000000000600052602160045260246000fd5b1415613e5b576301e1338081613e589190615479565b90505b5b5b5b5b5b5b8181613e6d91906154aa565b96505050505b600560008681526020019081526020016000206005015484613e959190615423565b9350505050919050565b806005600082815260200190815260200160002060060160019054906101000a900460ff16613ecd57600080fd5b813373ffffffffffffffffffffffffffffffffffffffff166005600083815260200190815260200160002060030160009054906101000a900473ffffffffffffffffffffffffffffffffffffffff1673ffffffffffffffffffffffffffffffffffffffff161480613fcb57503373ffffffffffffffffffffffffffffffffffffffff1660016000600360006005600087815260200190815260200160002060010154815260200190815260200160002060010154815260200190815260200160002060010160009054906101000a900473ffffffffffffffffffffffffffffffffffffffff1673ffffffffffffffffffffffffffffffffffffffff16145b613fd457600080fd5b6000613fdf846138b5565b905060006005600086815260200190815260200160002060030160009054906101000a900473ffffffffffffffffffffffffffffffffffffffff16905060008060008373ffffffffffffffffffffffffffffffffffffffff1673ffffffffffffffffffffffffffffffffffffffff1681526020019081526020016000206001015483101561406f578290506140b4565b6000808373ffffffffffffffffffffffffffffffffffffffff1673ffffffffffffffffffffffffffffffffffffffff1681526020019081526020016000206001015490505b806000808473ffffffffffffffffffffffffffffffffffffffff1673ffffffffffffffffffffffffffffffffffffffff16815260200190815260200160002060010160008282546141059190615504565b9250508190555080600080614119896141b5565b73ffffffffffffffffffffffffffffffffffffffff1673ffffffffffffffffffffffffffffffffffffffff16815260200190815260200160002060010160008282546141659190615423565b9250508190555042600560008881526020019081526020016000206004018190555080836141939190615504565b6005600088815260200190815260200160002060050181905550505050505050565b6000816005600082815260200190815260200160002060060160019054906101000a900460ff166141e557600080fd5b60016000600360006005600088815260200190815260200160002060010154815260200190815260200160002060010154815260200190815260200160002060010160009054906101000a900473ffffffffffffffffffffffffffffffffffffffff16915050919050565b82805461425c906155f9565b90600052602060002090601f01602090048101928261427e57600085556142c5565b82601f1061429757805160ff19168380011785556142c5565b828001600101855582156142c5579182015b828111156142c45782518255916020019190600101906142a9565b5b5090506142d291906144a0565b5090565b6040518060a0016040528060008152602001606081526020016060815260200160006006811115614330577f4e487b7100000000000000000000000000000000000000000000000000000000600052602160045260246000fd5b8152602001600081525090565b6040518060e0016040528060008152602001606081526020016060815260200160006006811115614397577f4e487b7100000000000000000000000000000000000000000000000000000000600052602160045260246000fd5b81526020016000815260200160008152602001600081525090565b6040518061010001604052806000815260200160608152602001606081526020016000600681111561440d577f4e487b7100000000000000000000000000000000000000000000000000000000600052602160045260246000fd5b81526020016000815260200160608152602001600081526020016000151581525090565b6040518060a0016040528060008152602001606081526020016000815260200160008152602001600081525090565b604051806080016040528060008152602001600073ffffffffffffffffffffffffffffffffffffffff168152602001606081526020016000151581525090565b5b808211156144b95760008160009055506001016144a1565b5090565b60006144d06144cb8461529d565b615278565b9050828152602081018484840111156144e857600080fd5b6144f38482856155b7565b509392505050565b60008135905061450a81615a41565b92915050565b600082601f83011261452157600080fd5b81356145318482602086016144bd565b91505092915050565b60008135905061454981615a51565b92915050565b60006020828403121561456157600080fd5b600082013567ffffffffffffffff81111561457b57600080fd5b61458784828501614510565b91505092915050565b6000602082840312156145a257600080fd5b60006145b08482850161453a565b91505092915050565b600080604083850312156145cc57600080fd5b60006145da8582860161453a565b925050602083013567ffffffffffffffff8111156145f757600080fd5b61460385828601614510565b9150509250929050565b6000806000806080858703121561462357600080fd5b60006146318782880161453a565b945050602085013567ffffffffffffffff81111561464e57600080fd5b61465a87828801614510565b935050604061466b878288016144fb565b925050606061467c8782880161453a565b91505092959194509250565b60006146948383614bcd565b905092915050565b60006146a88383614c4a565b905092915050565b60006146bc8383614ced565b905092915050565b60006146d08383614d63565b905092915050565b60006146e48383614dc6565b905092915050565b6146f581615538565b82525050565b61470481615538565b82525050565b61471b61471682615538565b6156a5565b82525050565b600061472c8261531e565b61473681856153a1565b935083602082028501614748856152ce565b8060005b8581101561478457848403895281516147658582614688565b945061477083615360565b925060208a0199505060018101905061474c565b50829750879550505050505092915050565b60006147a182615329565b6147ab81856153b2565b9350836020820285016147bd856152de565b8060005b858110156147f957848403895281516147da858261469c565b94506147e58361536d565b925060208a019950506001810190506147c1565b50829750879550505050505092915050565b600061481682615334565b61482081856153c3565b935083602082028501614832856152ee565b8060005b8581101561486e578484038952815161484f85826146b0565b945061485a8361537a565b925060208a01995050600181019050614836565b50829750879550505050505092915050565b600061488b8261533f565b61489581856153d4565b9350836020820285016148a7856152fe565b8060005b858110156148e357848403895281516148c485826146c4565b94506148cf83615387565b925060208a019950506001810190506148ab565b50829750879550505050505092915050565b60006149008261534a565b61490a81856153e5565b93508360208202850161491c8561530e565b8060005b85811015614958578484038952815161493985826146d8565b945061494483615394565b925060208a01995050600181019050614920565b50829750879550505050505092915050565b6149738161554a565b82525050565b6149828161554a565b82525050565b61499181615593565b82525050565b6149a081615593565b82525050565b6149b76149b282615593565b6156d3565b82525050565b6149c6816155a5565b82525050565b60006149d782615355565b6149e181856153f6565b93506149f18185602086016155c6565b6149fa816157d0565b840191505092915050565b6000614a1082615355565b614a1a8185615407565b9350614a2a8185602086016155c6565b614a33816157d0565b840191505092915050565b6000614a4982615355565b614a538185615418565b9350614a638185602086016155c6565b80840191505092915050565b6000614a7c601f83615407565b9150614a87826157fb565b602082019050919050565b6000614a9f602b83615407565b9150614aaa82615824565b604082019050919050565b6000614ac2602a83615407565b9150614acd82615873565b604082019050919050565b6000614ae5602683615407565b9150614af0826158c2565b604082019050919050565b6000614b08601483615407565b9150614b1382615911565b602082019050919050565b6000614b2b602b83615407565b9150614b368261593a565b604082019050919050565b6000614b4e601083615407565b9150614b5982615989565b602082019050919050565b6000614b71601383615407565b9150614b7c826159b2565b602082019050919050565b6000614b94601e83615407565b9150614b9f826159db565b602082019050919050565b6000614bb7601783615407565b9150614bc282615a04565b602082019050919050565b600060a083016000830151614be56000860182614e84565b5060208301518482036020860152614bfd82826149cc565b91505060408301518482036040860152614c1782826149cc565b9150506060830151614c2c6060860182614988565b506080830151614c3f6080860182614e84565b508091505092915050565b600060e083016000830151614c626000860182614e84565b5060208301518482036020860152614c7a82826149cc565b91505060408301518482036040860152614c9482826149cc565b9150506060830151614ca96060860182614988565b506080830151614cbc6080860182614e84565b5060a0830151614ccf60a0860182614e84565b5060c0830151614ce260c0860182614e84565b508091505092915050565b600060a083016000830151614d056000860182614e84565b5060208301518482036020860152614d1d82826149cc565b9150506040830151614d326040860182614e84565b506060830151614d456060860182614e84565b506080830151614d586080860182614e84565b508091505092915050565b6000608083016000830151614d7b6000860182614e84565b506020830151614d8e60208601826146ec565b5060408301518482036040860152614da682826149cc565b9150506060830151614dbb606086018261496a565b508091505092915050565b600061010083016000830151614ddf6000860182614e84565b5060208301518482036020860152614df782826149cc565b91505060408301518482036040860152614e1182826149cc565b9150506060830151614e266060860182614988565b506080830151614e396080860182614e84565b5060a083015184820360a0860152614e5182826149cc565b91505060c0830151614e6660c0860182614e84565b5060e0830151614e7960e086018261496a565b508091505092915050565b614e8d81615589565b82525050565b614e9c81615589565b82525050565b614eb3614eae82615589565b6156c9565b82525050565b6000614ec5828561470a565b601482019150614ed58284614a3e565b91508190509392505050565b6000614eed8286614ea2565b602082019150614efd82856149a6565b600182019150614f0d8284614ea2565b602082019150819050949350505050565b6000614f2a8286614ea2565b602082019150614f3a8285614a3e565b9150614f46828461470a565b601482019150819050949350505050565b60006020820190508181036000830152614f718184614721565b905092915050565b60006020820190508181036000830152614f938184614796565b905092915050565b60006020820190508181036000830152614fb5818461480b565b905092915050565b60006020820190508181036000830152614fd78184614880565b905092915050565b60006020820190508181036000830152614ff981846148f5565b905092915050565b6000602082019050818103600083015261501a81614a6f565b9050919050565b6000602082019050818103600083015261503a81614a92565b9050919050565b6000602082019050818103600083015261505a81614ab5565b9050919050565b6000602082019050818103600083015261507a81614ad8565b9050919050565b6000602082019050818103600083015261509a81614afb565b9050919050565b600060208201905081810360008301526150ba81614b1e565b9050919050565b600060208201905081810360008301526150da81614b41565b9050919050565b600060208201905081810360008301526150fa81614b64565b9050919050565b6000602082019050818103600083015261511a81614b87565b9050919050565b6000602082019050818103600083015261513a81614baa565b9050919050565b60006020820190506151566000830184614e93565b92915050565b60006080820190506151716000830187614e93565b61517e60208301866146fb565b81810360408301526151908185614a05565b905061519f6060830184614979565b95945050505050565b600060e0820190506151bd600083018a614e93565b6151ca6020830189614e93565b81810360408301526151dc8188614a05565b90506151eb60608301876146fb565b6151f86080830186614e93565b61520560a08301856149bd565b61521260c0830184614979565b98975050505050505050565b600060a0820190506152336000830188614e93565b6152406020830187614e93565b81810360408301526152528186614a05565b90506152616060830185614997565b61526e6080830184614e93565b9695505050505050565b6000615282615293565b905061528e828261562b565b919050565b6000604051905090565b600067ffffffffffffffff8211156152b8576152b76157a1565b5b6152c1826157d0565b9050602081019050919050565b6000819050602082019050919050565b6000819050602082019050919050565b6000819050602082019050919050565b6000819050602082019050919050565b6000819050602082019050919050565b600081519050919050565b600081519050919050565b600081519050919050565b600081519050919050565b600081519050919050565b600081519050919050565b6000602082019050919050565b6000602082019050919050565b6000602082019050919050565b6000602082019050919050565b6000602082019050919050565b600082825260208201905092915050565b600082825260208201905092915050565b600082825260208201905092915050565b600082825260208201905092915050565b600082825260208201905092915050565b600082825260208201905092915050565b600082825260208201905092915050565b600081905092915050565b600061542e82615589565b915061543983615589565b9250827fffffffffffffffffffffffffffffffffffffffffffffffffffffffffffffffff0382111561546e5761546d6156e5565b5b828201905092915050565b600061548482615589565b915061548f83615589565b92508261549f5761549e615714565b5b828204905092915050565b60006154b582615589565b91506154c083615589565b9250817fffffffffffffffffffffffffffffffffffffffffffffffffffffffffffffffff04831182151516156154f9576154f86156e5565b5b828202905092915050565b600061550f82615589565b915061551a83615589565b92508282101561552d5761552c6156e5565b5b828203905092915050565b600061554382615569565b9050919050565b60008115159050919050565b600081905061556482615a2d565b919050565b600073ffffffffffffffffffffffffffffffffffffffff82169050919050565b6000819050919050565b600061559e82615556565b9050919050565b60006155b082615589565b9050919050565b82818337600083830152505050565b60005b838110156155e45780820151818401526020810190506155c9565b838111156155f3576000848401525b50505050565b6000600282049050600182168061561157607f821691505b6020821081141561562557615624615772565b5b50919050565b615634826157d0565b810181811067ffffffffffffffff82111715615653576156526157a1565b5b80604052505050565b600061566782615589565b91507fffffffffffffffffffffffffffffffffffffffffffffffffffffffffffffffff82141561569a576156996156e5565b5b600182019050919050565b60006156b0826156b7565b9050919050565b60006156c2826157ee565b9050919050565b6000819050919050565b60006156de826157e1565b9050919050565b7f4e487b7100000000000000000000000000000000000000000000000000000000600052601160045260246000fd5b7f4e487b7100000000000000000000000000000000000000000000000000000000600052601260045260246000fd5b7f4e487b7100000000000000000000000000000000000000000000000000000000600052602160045260246000fd5b7f4e487b7100000000000000000000000000000000000000000000000000000000600052602260045260246000fd5b7f4e487b7100000000000000000000000000000000000000000000000000000000600052604160045260246000fd5b6000601f19601f8301169050919050565b60008160f81b9050919050565b60008160601b9050919050565b7f5365727669636520636f646520697320616c72656164792070726573656e7400600082015250565b7f55736572206e6f7420746865206f776e6572206f66207468652072657175657360008201527f7465642073657276696365000000000000000000000000000000000000000000602082015250565b7f4465706f73697420616d6f756e742073686f756c64206265206772656174657260008201527f207468616e207a65726f00000000000000000000000000000000000000000000602082015250565b7f5573657220616c7265616479207375627363726962656420746f20746865207360008201527f6572766963650000000000000000000000000000000000000000000000000000602082015250565b7f496e737566696369656e742042616c616e636521000000000000000000000000600082015250565b7f557365722062616c616e636520696e73756666696369656e7420746f2073657460008201527f746c65206f766572647565000000000000000000000000000000000000000000602082015250565b7f506c616e206e6f742070726573656e7400000000000000000000000000000000600082015250565b7f53657276696365206e6f742070726573656e7400000000000000000000000000600082015250565b7f4f776e6572206e6f7420616c6c6f77656420746f207375627363726962650000600082015250565b7f506c616e20697320616c72656164792070726573656e74000000000000000000600082015250565b60078110615a3e57615a3d615743565b5b50565b60078110615a4e57600080fd5b50565b615a5a81615589565b8114615a6557600080fd5b5056fea26469706673582212205a8ce7661beb86d6c5082ffaacb61fd3ad42f481185108545203bba9c3a672cd64736f6c63430008040033",
  "immutableReferences": {},
  "source": "// SPDX-License-Identifier: UNLICENSED\n\npragma solidity 0.8.4;\nimport './ServicePlans.sol';\n\n/**\n * @title UserPlanSubscriptions\n * @dev Extension of User side contract for users with subscription built over UserServices\n */\ncontract UserPlanSubscriptions is ServicePlans {\n  struct Subscription {\n    uint256 subscriptionId;\n    uint256 planId;\n    string userIdHash;\n    address userAddress;\n    uint256 lastSettledTime;\n    uint256 overdue;\n    bool isActive;\n    bool isPresent;\n  }\n\n  struct UserSubsDetails {\n    uint256 subscriptionId;\n    string serviceCode;\n    string planCode;\n    BillingType billingFrequency;\n    uint256 costPerBilling;\n    string userIdHash;\n    uint256 amountDue;\n    bool isActive;\n  }\n\n  struct ServiceDetails {\n    uint256 serviceId;\n    string serviceCode;\n    uint256 numActivePlans;\n    uint256 numActiveSubs;\n    uint256 serviceCollectable;\n  }\n\n  struct PlanDetails {\n    uint256 planId;\n    string planCode;\n    string serviceCode;\n    BillingType billingFrequency;\n    uint256 costPerBilling;\n    uint256 numActiveSubs;\n    uint256 planCollectable;\n  }\n\n  event SubscriptionCreated (\n    uint256 subscriptionId,\n    uint256 planId,\n    string userIdHash,\n    address userAddress,\n    uint256 lastSettledTime,\n    uint256 overdue,\n    bool isActive\n  );\n\n  mapping(uint256 => Subscription) subscriptions;\n  mapping(uint256 => uint256[]) planToSubscriptions;\n  mapping(address => uint256[]) userToSubscriptions;\n\n  modifier subscriptionIsPresent(uint256 _subscriptionId) {\n    require(subscriptions[_subscriptionId].isPresent);\n    _;\n  }\n\n  modifier subscriptionIsActive(uint256 _subscriptionId) {\n    require(subscriptions[_subscriptionId].isPresent && subscriptions[_subscriptionId].isActive);\n    _;\n  }\n\n  modifier isSubscribedTo(uint256 _subscriptionId) {\n    require(subscriptions[_subscriptionId].userAddress == msg.sender);\n    _;\n  }\n\n  modifier isOwnerOfSubscription(uint256 _subscriptionId) {\n    require(services[plans[subscriptions[_subscriptionId].planId].serviceId].owner == msg.sender);\n    _;\n  }\n\n  modifier isSubscribedToOrOwner(uint256 _subscriptionId) {\n    require(\n      subscriptions[_subscriptionId].userAddress == msg.sender ||\n        services[plans[subscriptions[_subscriptionId].planId].serviceId].owner == msg.sender\n    );\n    _;\n  }\n\n  function _calculateSubscriptionDue(uint256 _subscriptionId)\n    internal\n    view\n    subscriptionIsPresent(_subscriptionId)\n    isSubscribedToOrOwner(_subscriptionId)\n    returns (uint256 _subscriptionDue)\n  {\n    Subscription storage _sub = subscriptions[_subscriptionId];\n    if (_sub.isActive) {\n      BillingType _billType = plans[_sub.planId].billingFrequency;\n      uint256 _costPerBill = plans[_sub.planId].costPerBilling;\n      uint256 _billedTime = (block.timestamp - _sub.lastSettledTime);\n      if (_billType == BillingType.MINUTELY) {\n        _billedTime = _billedTime / 60;\n      } else if (_billType == BillingType.HOURLY) {\n        _billedTime = _billedTime / (60 * 60);\n      } else if (_billType == BillingType.DAILY) {\n        _billedTime = _billedTime / (60 * 60 * 24);\n      } else if (_billType == BillingType.WEEKLY) {\n        _billedTime = _billedTime / (60 * 60 * 24 * 7);\n      } else if (_billType == BillingType.MONTHLY) {\n        _billedTime = _billedTime / (60 * 60 * 24 * 30);\n      } else if (_billType == BillingType.QUARTERLY) {\n        _billedTime = _billedTime / (60 * 60 * 24 * 30 * 3);\n      } else if (_billType == BillingType.YEARLY) {\n        _billedTime = _billedTime / (60 * 60 * 24 * 365);\n      }\n      _subscriptionDue = _billedTime * _costPerBill;\n    }\n    _subscriptionDue += subscriptions[_subscriptionId].overdue;\n  }\n\n  function _settleSubs(uint256 _subsId)\n    internal\n    subscriptionIsPresent(_subsId)\n    isSubscribedToOrOwner(_subsId)\n  {\n    uint256 _amountDue = _calculateSubscriptionDue(_subsId);\n    address subscriber = subscriptions[_subsId].userAddress;\n\n    uint256 _amountToSettle;\n    if (_amountDue < users[subscriber].lastRecordedBalance) {\n      _amountToSettle = _amountDue;\n    } else {\n      _amountToSettle = users[subscriber].lastRecordedBalance;\n    }\n\n    users[subscriber].lastRecordedBalance -= _amountToSettle;\n    users[_getServiceOwnerOfSubscription(_subsId)].lastRecordedBalance += _amountToSettle;\n    subscriptions[_subsId].lastSettledTime = block.timestamp;\n    subscriptions[_subsId].overdue = _amountDue - _amountToSettle;\n  }\n\n  /**\n   * @dev create subscription for the user for the selected plan and\n   * allow service to collect payment based on selected plan\n   * @param _planId id of the plan to subscribe\n   * @param _userIdHash hash of the user identifier\n   */\n  function subscribe(uint256 _planId, string memory _userIdHash) external planIsPresent(_planId) {\n    require(\n      services[plans[_planId].serviceId].owner != msg.sender,\n      'Owner not allowed to subscribe'\n    );\n    for (uint256 i = 0; i < userToSubscriptions[msg.sender].length; i++) {\n      require(plans[subscriptions[userToSubscriptions[msg.sender][i]].planId].serviceId != plans[_planId].serviceId, \"User already subscribed to the service\");\n    }\n    uint256 _subscriptionId = uint256(\n      keccak256(abi.encodePacked(_planId, _userIdHash, msg.sender))\n    );\n    // require(!subscriptions[_subscriptionId].isActive, 'User already subscribed to the plan');\n\n    if (subscriptions[_subscriptionId].isPresent) {\n      _settleSubs(_subscriptionId);\n      require(\n        subscriptions[_subscriptionId].overdue == 0,\n        'User balance insufficient to settle overdue'\n      );\n      subscriptions[_subscriptionId].isActive = true;\n    } else {\n      subscriptions[_subscriptionId] = Subscription(\n        _subscriptionId,\n        _planId,\n        _userIdHash,\n        msg.sender,\n        block.timestamp,\n        0,\n        true,\n        true\n      );\n      emit SubscriptionCreated(\n        _subscriptionId,\n        _planId,\n        _userIdHash,\n        msg.sender,\n        block.timestamp,\n        0,\n        true\n      );\n    }\n    planToSubscriptions[_planId].push(_subscriptionId);\n    userToSubscriptions[msg.sender].push(_subscriptionId);\n  }\n\n  function unsubscribe(uint256 _subscriptionId)\n    public\n    subscriptionIsPresent(_subscriptionId)\n    subscriptionIsActive(_subscriptionId)\n    isSubscribedToOrOwner(_subscriptionId)\n  {\n    _settleSubs(_subscriptionId);\n    // require()\n    subscriptions[_subscriptionId].isActive = false;\n\n    uint256[] storage _planSubs = planToSubscriptions[subscriptions[_subscriptionId].planId];\n    for (uint256 i = 0; i < _planSubs.length; i++) {\n      if (_planSubs[i] == _subscriptionId) {\n        _planSubs[i] = _planSubs[_planSubs.length - 1];\n        _planSubs.pop();\n      }\n    }\n\n    uint256[] storage _userSubs = userToSubscriptions[subscriptions[_subscriptionId].userAddress];\n    for (uint256 i = 0; i < _userSubs.length; i++) {\n      if (_userSubs[i] == _subscriptionId) {\n        _userSubs[i] = _userSubs[_userSubs.length - 1];\n        _userSubs.pop();\n      }\n    }\n  }\n\n  function _getServiceOwnerOfSubscription(uint256 _subscriptionId)\n    private\n    view\n    subscriptionIsPresent(_subscriptionId)\n    returns (address _owner)\n  {\n    _owner = services[plans[subscriptions[_subscriptionId].planId].serviceId].owner;\n  }\n\n  function totalCollectableAmountFromPlan(uint256 _planId)\n    public\n    view\n    planIsPresent(_planId)\n    returns (uint256 _collectableFromPlan)\n  {\n    uint256[] storage _planSubs = planToSubscriptions[_planId];\n    for (uint256 k = 0; k < _planSubs.length; k++) {\n      _collectableFromPlan += _calculateSubscriptionDue(_planSubs[k]);\n    }\n  }\n\n  function totalCollectableAmountFromService(uint256 _serviceId)\n    public\n    view\n    serviceIsPresent(_serviceId)\n    isOwnerOfService(_serviceId)\n    returns (uint256 _collectableFromService)\n  {\n    uint256[] storage _servicePlans = serviceToPlans[_serviceId];\n    for (uint256 j = 0; j < _servicePlans.length; j++) {\n      _collectableFromService += totalCollectableAmountFromPlan(_servicePlans[j]);\n    }\n  }\n\n  function totalCollectableAmountFromAllServices()\n    public\n    view\n    returns (uint256 _totalCollectableAmount)\n  {\n    uint256[] storage _userServices = ownerToServices[msg.sender];\n    for (uint256 i = 0; i < _userServices.length; i++) {\n      _totalCollectableAmount += totalCollectableAmountFromService(_userServices[i]);\n    }\n  }\n\n  function collectDueFromAllSubscriptionsOfPlan(uint256 _planId) public planIsPresent(_planId) {\n    uint256[] storage _planSubs = planToSubscriptions[_planId];\n    for (uint256 k = 0; k < _planSubs.length; k++) {\n      _settleSubs(_planSubs[k]);\n    }\n  }\n\n  function collectDueFromAllPlansOfService(uint256 _serviceId)\n    public\n    serviceIsPresent(_serviceId)\n    isOwnerOfService(_serviceId)\n  {\n    uint256[] storage _servicePlans = serviceToPlans[_serviceId];\n    for (uint256 j = 0; j < _servicePlans.length; j++) {\n      collectDueFromAllSubscriptionsOfPlan(_servicePlans[j]);\n    }\n  }\n\n  function collectDueFromAllOwnedServices() public {\n    uint256[] storage _userServices = ownerToServices[msg.sender];\n    for (uint256 i = 0; i < _userServices.length; i++) {\n      collectDueFromAllPlansOfService(_userServices[i]);\n    }\n  }\n\n  function inactivateAllOverdueSubscriptionsOfPlan(uint256 _planId) public planIsPresent(_planId) {\n    uint256[] storage _planSubs = planToSubscriptions[_planId];\n    for (uint256 k = 0; k < _planSubs.length; k++) {\n      if (\n        subscriptions[_planSubs[k]].overdue >\n        users[subscriptions[_planSubs[k]].userAddress].lastRecordedBalance\n      ) {\n        unsubscribe(_planSubs[k]);\n      }\n    }\n  }\n\n  function inactivateAllOverdueSubscriptionsOfService(uint256 _serviceId)\n    public\n    serviceIsPresent(_serviceId)\n    isOwnerOfService(_serviceId)\n  {\n    uint256[] storage _servicePlans = serviceToPlans[_serviceId];\n    for (uint256 j = 0; j < _servicePlans.length; j++) {\n      inactivateAllOverdueSubscriptionsOfPlan(_servicePlans[j]);\n    }\n  }\n\n  function inactivateAllOverdueSubscriptions() public {\n    uint256[] storage _userServices = ownerToServices[msg.sender];\n    for (uint256 i = 0; i < _userServices.length; i++) {\n      inactivateAllOverdueSubscriptionsOfService(_userServices[i]);\n    }\n  }\n\n  /**\n   * @dev fetch all subscriptions of the user\n   */\n  function getSubsByUser() public view returns (UserSubsDetails[] memory) {\n    uint256 numSubs = userToSubscriptions[msg.sender].length;\n    UserSubsDetails[] memory _userSubs = new UserSubsDetails[](numSubs);\n\n    for (uint256 i = 0; i < numSubs; i++) {\n      Subscription storage _sub = subscriptions[userToSubscriptions[msg.sender][i]];\n      _userSubs[i] = UserSubsDetails(\n        _sub.subscriptionId,\n        services[plans[_sub.planId].serviceId].serviceCode,\n        plans[_sub.planId].planCode,\n        plans[_sub.planId].billingFrequency,\n        plans[_sub.planId].costPerBilling,\n        _sub.userIdHash,\n        _calculateSubscriptionDue(userToSubscriptions[msg.sender][i]),\n        _sub.isActive\n      );\n    }\n    return _userSubs;\n  }\n\n  function totalAmountDueToAllSubs() public view returns (uint256 _totalDue) {\n    uint256 _numSubs = userToSubscriptions[msg.sender].length;\n    for (uint256 i = 0; i < _numSubs; i++) {\n      _totalDue += _calculateSubscriptionDue(userToSubscriptions[msg.sender][i]);\n    }\n  }\n\n  /**\n   * @dev fetch all the services owned by the user\n   * @return _ownedServicesDetails list of all services owned by the user\n   */\n  function getAllOwnedServicesDetails() public view returns (ServiceDetails[] memory) {\n    uint256 numServices = ownerToServices[msg.sender].length;\n    ServiceDetails[] memory _ownedServicesDetails = new ServiceDetails[](numServices);\n    for (uint256 i = 0; i < numServices; i++) {\n      uint256 ithServiceId = ownerToServices[msg.sender][i];\n      uint256 activeSubsCount = 0;\n      for (uint256 j = 0; j < serviceToPlans[ithServiceId].length; j++) {\n        activeSubsCount += planToSubscriptions[serviceToPlans[ithServiceId][j]].length;\n      }\n      _ownedServicesDetails[i] = ServiceDetails(\n        ithServiceId,\n        services[ithServiceId].serviceCode,\n        serviceToPlans[ithServiceId].length,\n        activeSubsCount,\n        totalCollectableAmountFromService(ithServiceId)\n      );\n    }\n    return _ownedServicesDetails;\n  }\n\n  function getAllPlans() public view returns(PlanDetails[] memory) {\n    uint256 numServices = ownerToServices[msg.sender].length;\n    uint256 totalNumPlans = 0;\n    for (uint256 i = 0; i < numServices; i++) {\n        totalNumPlans += serviceToPlans[ownerToServices[msg.sender][i]].length;\n    }\n    PlanDetails[] memory _plans = new PlanDetails[](totalNumPlans);\n    uint256 k = 0;\n    for (uint256 i = 0; i < numServices; i++) {\n      uint256 numPlans = serviceToPlans[ownerToServices[msg.sender][i]].length;\n      for (uint256 j = 0; j < numPlans; j++) {\n        Plan storage _plan = plans[serviceToPlans[ownerToServices[msg.sender][i]][j]];\n        _plans[k++] = PlanDetails(\n          _plan.planId,\n          _plan.planCode,\n          services[_plan.serviceId].serviceCode,\n          _plan.billingFrequency,\n          _plan.costPerBilling,\n          planToSubscriptions[_plan.planId].length,\n          totalCollectableAmountFromPlan(_plan.planId)\n        );\n      } \n    }\n    return _plans;\n  }\n}\n",
  "sourcePath": "/Users/zishansami102/Documents/projects/github/charger-contracts/contracts/UserPlanSubscriptions.sol",
  "compiler": {
    "name": "solc",
    "version": "0.8.4+commit.c7e474f2.Emscripten.clang"
  },
  "schemaVersion": "3.4.3",
  "updatedAt": "2022-01-22T22:54:06.225Z",
  "networkType": "ethereum",
  "devdoc": {
    "details": "Extension of User side contract for users with subscription built over UserServices",
    "kind": "dev",
    "methods": {
      "createPlan(uint256,string,uint8,uint256)": {
        "details": "create plan for the service",
        "params": {
          "_billingFrequency": "billing frequency type",
          "_costPerBilling": "cost per billing cycle",
          "_planCode": "unique identifier for the plan",
          "_serviceId": "id of the service"
        }
      },
      "createService(string)": {
        "details": "create service for the user",
        "params": {
          "_serviceCode": "unique identifier for the service"
        }
      },
      "deposit()": {
        "details": "Deposit ether in user's smart account"
      },
      "getAllOwnedServices()": {
        "details": "fetch all the services owned by the user",
        "returns": {
          "_0": "_ownedServices list of all services owned by the user"
        }
      },
      "getAllOwnedServicesDetails()": {
        "details": "fetch all the services owned by the user",
        "returns": {
          "_0": "_ownedServicesDetails list of all services owned by the user"
        }
      },
      "getCurrentBalance()": {
        "details": "Retrieves the balance of the user",
        "returns": {
          "_balance": "_balance"
        }
      },
      "getPlans(uint256)": {
        "details": "fetch all the plans of the service",
        "returns": {
          "_0": "_servicePlans list of all plans created under given service"
        }
      },
      "getSubsByUser()": {
        "details": "fetch all subscriptions of the user"
      },
      "subscribe(uint256,string)": {
        "details": "create subscription for the user for the selected plan and allow service to collect payment based on selected plan",
        "params": {
          "_planId": "id of the plan to subscribe",
          "_userIdHash": "hash of the user identifier"
        }
      },
      "withdraw(uint256)": {
        "details": "Withdraw ether from user's smart account",
        "params": {
          "_amount": "value to withdraw from the user's balance"
        }
      }
    },
    "title": "UserPlanSubscriptions",
    "version": 1
  },
  "userdoc": {
    "kind": "user",
    "methods": {},
    "version": 1
  }
}