{
  "contractName": "UserPlanSubscriptions",
  "abi": [
    {
      "anonymous": false,
      "inputs": [
        {
          "indexed": true,
          "internalType": "address",
          "name": "owner",
          "type": "address"
        },
        {
          "indexed": false,
          "internalType": "uint256",
          "name": "balance",
          "type": "uint256"
        }
      ],
      "name": "BalanceUpdated",
      "type": "event"
    },
    {
      "anonymous": false,
      "inputs": [
        {
          "indexed": false,
          "internalType": "uint256",
          "name": "planId",
          "type": "uint256"
        },
        {
          "indexed": false,
          "internalType": "uint256",
          "name": "serviceId",
          "type": "uint256"
        },
        {
          "indexed": false,
          "internalType": "string",
          "name": "planCode",
          "type": "string"
        },
        {
          "indexed": false,
          "internalType": "enum ServicePlans.BillingType",
          "name": "billingFrequency",
          "type": "uint8"
        },
        {
          "indexed": false,
          "internalType": "uint256",
          "name": "costPerBilling",
          "type": "uint256"
        }
      ],
      "name": "PlanCreated",
      "type": "event"
    },
    {
      "anonymous": false,
      "inputs": [
        {
          "indexed": false,
          "internalType": "uint256",
          "name": "serviceId",
          "type": "uint256"
        },
        {
          "indexed": false,
          "internalType": "address",
          "name": "owner",
          "type": "address"
        },
        {
          "indexed": false,
          "internalType": "string",
          "name": "serviceCode",
          "type": "string"
        },
        {
          "indexed": false,
          "internalType": "bool",
          "name": "isPresent",
          "type": "bool"
        }
      ],
      "name": "ServiceCreated",
      "type": "event"
    },
    {
      "anonymous": false,
      "inputs": [
        {
          "indexed": false,
          "internalType": "uint256",
          "name": "subscriptionId",
          "type": "uint256"
        },
        {
          "indexed": false,
          "internalType": "uint256",
          "name": "planId",
          "type": "uint256"
        },
        {
          "indexed": false,
          "internalType": "string",
          "name": "userIdHash",
          "type": "string"
        },
        {
          "indexed": false,
          "internalType": "address",
          "name": "userAddress",
          "type": "address"
        },
        {
          "indexed": false,
          "internalType": "uint256",
          "name": "lastSettledTime",
          "type": "uint256"
        },
        {
          "indexed": false,
          "internalType": "uint256",
          "name": "overdue",
          "type": "uint256"
        },
        {
          "indexed": false,
          "internalType": "bool",
          "name": "isActive",
          "type": "bool"
        }
      ],
      "name": "SubscriptionCreated",
      "type": "event"
    },
    {
      "anonymous": false,
      "inputs": [
        {
          "indexed": false,
          "internalType": "uint256",
          "name": "subscriptionId",
          "type": "uint256"
        },
        {
          "indexed": false,
          "internalType": "uint256",
          "name": "planId",
          "type": "uint256"
        },
        {
          "indexed": false,
          "internalType": "uint256",
          "name": "overdue",
          "type": "uint256"
        },
        {
          "indexed": false,
          "internalType": "bool",
          "name": "isActive",
          "type": "bool"
        }
      ],
      "name": "Unsubscribed",
      "type": "event"
    },
    {
      "inputs": [
        {
          "internalType": "uint256",
          "name": "_serviceId",
          "type": "uint256"
        },
        {
          "internalType": "string",
          "name": "_planCode",
          "type": "string"
        },
        {
          "internalType": "enum ServicePlans.BillingType",
          "name": "_billingFrequency",
          "type": "uint8"
        },
        {
          "internalType": "uint256",
          "name": "_costPerBilling",
          "type": "uint256"
        }
      ],
      "name": "createPlan",
      "outputs": [],
      "stateMutability": "nonpayable",
      "type": "function"
    },
    {
      "inputs": [
        {
          "internalType": "string",
          "name": "_serviceCode",
          "type": "string"
        }
      ],
      "name": "createService",
      "outputs": [],
      "stateMutability": "nonpayable",
      "type": "function"
    },
    {
      "inputs": [],
      "name": "deposit",
      "outputs": [],
      "stateMutability": "payable",
      "type": "function"
    },
    {
      "inputs": [],
      "name": "getAllOwnedServices",
      "outputs": [
        {
          "components": [
            {
              "internalType": "uint256",
              "name": "serviceId",
              "type": "uint256"
            },
            {
              "internalType": "address",
              "name": "owner",
              "type": "address"
            },
            {
              "internalType": "string",
              "name": "serviceCode",
              "type": "string"
            },
            {
              "internalType": "bool",
              "name": "isPresent",
              "type": "bool"
            }
          ],
          "internalType": "struct UserServices.Service[]",
          "name": "",
          "type": "tuple[]"
        }
      ],
      "stateMutability": "view",
      "type": "function"
    },
    {
      "inputs": [],
      "name": "getCurrentBalance",
      "outputs": [
        {
          "internalType": "uint256",
          "name": "_balance",
          "type": "uint256"
        }
      ],
      "stateMutability": "view",
      "type": "function"
    },
    {
      "inputs": [
        {
          "internalType": "uint256",
          "name": "_serviceId",
          "type": "uint256"
        }
      ],
      "name": "getPlans",
      "outputs": [
        {
          "components": [
            {
              "internalType": "uint256",
              "name": "planId",
              "type": "uint256"
            },
            {
              "internalType": "string",
              "name": "planCode",
              "type": "string"
            },
            {
              "internalType": "string",
              "name": "serviceCode",
              "type": "string"
            },
            {
              "internalType": "enum ServicePlans.BillingType",
              "name": "billingFrequency",
              "type": "uint8"
            },
            {
              "internalType": "uint256",
              "name": "costPerBilling",
              "type": "uint256"
            }
          ],
          "internalType": "struct ServicePlans.PlanDetailsStruct[]",
          "name": "",
          "type": "tuple[]"
        }
      ],
      "stateMutability": "view",
      "type": "function"
    },
    {
      "inputs": [
        {
          "internalType": "uint256",
          "name": "_amount",
          "type": "uint256"
        }
      ],
      "name": "withdraw",
      "outputs": [],
      "stateMutability": "nonpayable",
      "type": "function"
    },
    {
      "inputs": [
        {
          "internalType": "uint256",
          "name": "_planId",
          "type": "uint256"
        },
        {
          "internalType": "string",
          "name": "_userIdHash",
          "type": "string"
        }
      ],
      "name": "subscribe",
      "outputs": [],
      "stateMutability": "nonpayable",
      "type": "function"
    },
    {
      "inputs": [
        {
          "internalType": "uint256",
          "name": "_subscriptionId",
          "type": "uint256"
        }
      ],
      "name": "unsubscribe",
      "outputs": [],
      "stateMutability": "nonpayable",
      "type": "function"
    },
    {
      "inputs": [
        {
          "internalType": "uint256",
          "name": "_planId",
          "type": "uint256"
        }
      ],
      "name": "totalCollectableAmountFromPlan",
      "outputs": [
        {
          "internalType": "uint256",
          "name": "_collectableFromPlan",
          "type": "uint256"
        }
      ],
      "stateMutability": "view",
      "type": "function"
    },
    {
      "inputs": [
        {
          "internalType": "uint256",
          "name": "_serviceId",
          "type": "uint256"
        }
      ],
      "name": "totalCollectableAmountFromService",
      "outputs": [
        {
          "internalType": "uint256",
          "name": "_collectableFromService",
          "type": "uint256"
        }
      ],
      "stateMutability": "view",
      "type": "function"
    },
    {
      "inputs": [],
      "name": "totalCollectableAmountFromAllServices",
      "outputs": [
        {
          "internalType": "uint256",
          "name": "_totalCollectableAmount",
          "type": "uint256"
        }
      ],
      "stateMutability": "view",
      "type": "function"
    },
    {
      "inputs": [
        {
          "internalType": "uint256",
          "name": "_planId",
          "type": "uint256"
        }
      ],
      "name": "collectDueFromAllSubscriptionsOfPlan",
      "outputs": [],
      "stateMutability": "nonpayable",
      "type": "function"
    },
    {
      "inputs": [
        {
          "internalType": "uint256",
          "name": "_serviceId",
          "type": "uint256"
        }
      ],
      "name": "collectDueFromAllPlansOfService",
      "outputs": [],
      "stateMutability": "nonpayable",
      "type": "function"
    },
    {
      "inputs": [],
      "name": "collectDueFromAllOwnedServices",
      "outputs": [],
      "stateMutability": "nonpayable",
      "type": "function"
    },
    {
      "inputs": [
        {
          "internalType": "uint256",
          "name": "_planId",
          "type": "uint256"
        }
      ],
      "name": "inactivateAllOverdueSubscriptionsOfPlan",
      "outputs": [],
      "stateMutability": "nonpayable",
      "type": "function"
    },
    {
      "inputs": [
        {
          "internalType": "uint256",
          "name": "_serviceId",
          "type": "uint256"
        }
      ],
      "name": "inactivateAllOverdueSubscriptionsOfService",
      "outputs": [],
      "stateMutability": "nonpayable",
      "type": "function"
    },
    {
      "inputs": [],
      "name": "inactivateAllOverdueSubscriptions",
      "outputs": [],
      "stateMutability": "nonpayable",
      "type": "function"
    },
    {
      "inputs": [],
      "name": "getSubsByUser",
      "outputs": [
        {
          "components": [
            {
              "internalType": "uint256",
              "name": "subscriptionId",
              "type": "uint256"
            },
            {
              "internalType": "string",
              "name": "serviceCode",
              "type": "string"
            },
            {
              "internalType": "string",
              "name": "planCode",
              "type": "string"
            },
            {
              "internalType": "enum ServicePlans.BillingType",
              "name": "billingFrequency",
              "type": "uint8"
            },
            {
              "internalType": "uint256",
              "name": "costPerBilling",
              "type": "uint256"
            },
            {
              "internalType": "string",
              "name": "userIdHash",
              "type": "string"
            },
            {
              "internalType": "uint256",
              "name": "amountDue",
              "type": "uint256"
            },
            {
              "internalType": "bool",
              "name": "isActive",
              "type": "bool"
            }
          ],
          "internalType": "struct UserPlanSubscriptions.UserSubsDetails[]",
          "name": "",
          "type": "tuple[]"
        }
      ],
      "stateMutability": "view",
      "type": "function"
    },
    {
      "inputs": [],
      "name": "totalAmountDueToAllSubs",
      "outputs": [
        {
          "internalType": "uint256",
          "name": "_totalDue",
          "type": "uint256"
        }
      ],
      "stateMutability": "view",
      "type": "function"
    },
    {
      "inputs": [],
      "name": "getAllOwnedServicesDetails",
      "outputs": [
        {
          "components": [
            {
              "internalType": "uint256",
              "name": "serviceId",
              "type": "uint256"
            },
            {
              "internalType": "string",
              "name": "serviceCode",
              "type": "string"
            },
            {
              "internalType": "uint256",
              "name": "numActivePlans",
              "type": "uint256"
            },
            {
              "internalType": "uint256",
              "name": "numActiveSubs",
              "type": "uint256"
            },
            {
              "internalType": "uint256",
              "name": "serviceCollectable",
              "type": "uint256"
            }
          ],
          "internalType": "struct UserPlanSubscriptions.ServiceDetails[]",
          "name": "",
          "type": "tuple[]"
        }
      ],
      "stateMutability": "view",
      "type": "function"
    },
    {
      "inputs": [],
      "name": "getAllPlans",
      "outputs": [
        {
          "components": [
            {
              "internalType": "uint256",
              "name": "planId",
              "type": "uint256"
            },
            {
              "internalType": "string",
              "name": "planCode",
              "type": "string"
            },
            {
              "internalType": "string",
              "name": "serviceCode",
              "type": "string"
            },
            {
              "internalType": "enum ServicePlans.BillingType",
              "name": "billingFrequency",
              "type": "uint8"
            },
            {
              "internalType": "uint256",
              "name": "costPerBilling",
              "type": "uint256"
            },
            {
              "internalType": "uint256",
              "name": "numActiveSubs",
              "type": "uint256"
            },
            {
              "internalType": "uint256",
              "name": "planCollectable",
              "type": "uint256"
            }
          ],
          "internalType": "struct UserPlanSubscriptions.PlanDetails[]",
          "name": "",
          "type": "tuple[]"
        }
      ],
      "stateMutability": "view",
      "type": "function"
    }
  ],
  "bytecode": "0x608060405234801561001057600080fd5b50615b6f80620000216000396000f3fe6080604052600436106101355760003560e01c8063a5749710116100ab578063d0e30db01161006f578063d0e30db0146103e8578063d3000ad8146103f2578063d3f3ed5d1461041b578063d7bc8d5e14610446578063e26de85314610471578063feb5475e1461049c57610135565b8063a574971014610305578063ad0b27fb14610330578063bc0d69ef14610359578063be1a684214610382578063c1ddbe34146103ab57610135565b806346dc9c79116100fd57806346dc9c79146101f7578063525780121461023457806365580a291461025d57806386d4fbd31461029a578063922b0d3d146102c357806398de396a146102da57610135565b806303765fab1461013a5780630ae1f8e6146101515780631f6393a01461017a5780632ac61cdc146101a55780632e1a7d4d146101ce575b600080fd5b34801561014657600080fd5b5061014f6104c7565b005b34801561015d57600080fd5b506101786004803603810190610173919061461c565b61057c565b005b34801561018657600080fd5b5061018f610787565b60405161019c91906151cd565b60405180910390f35b3480156101b157600080fd5b506101cc60048036038101906101c7919061461c565b610889565b005b3480156101da57600080fd5b506101f560048036038101906101f0919061461c565b610978565b005b34801561020357600080fd5b5061021e6004803603810190610219919061461c565b610af2565b60405161022b91906151cd565b60405180910390f35b34801561024057600080fd5b5061025b600480360381019061025691906145db565b610bf2565b005b34801561026957600080fd5b50610284600480360381019061027f919061461c565b610e0c565b6040516102919190614fe3565b60405180910390f35b3480156102a657600080fd5b506102c160048036038101906102bc9190614645565b611232565b005b3480156102cf57600080fd5b506102d86117ce565b005b3480156102e657600080fd5b506102ef611883565b6040516102fc9190615005565b60405180910390f35b34801561031157600080fd5b5061031a611e0b565b60405161032791906151cd565b60405180910390f35b34801561033c57600080fd5b506103576004803603810190610352919061461c565b611e54565b005b34801561036557600080fd5b50610380600480360381019061037b919061461c565b612403565b005b34801561038e57600080fd5b506103a960048036038101906103a49190614699565b612598565b005b3480156103b757600080fd5b506103d260048036038101906103cd919061461c565b6128e8565b6040516103df91906151cd565b60405180910390f35b6103f0612a8e565b005b3480156103fe57600080fd5b506104196004803603810190610414919061461c565b612bba565b005b34801561042757600080fd5b50610430612d4f565b60405161043d919061506b565b60405180910390f35b34801561045257600080fd5b5061045b613253565b60405161046891906151cd565b60405180910390f35b34801561047d57600080fd5b50610486613317565b6040516104939190615027565b60405180910390f35b3480156104a857600080fd5b506104b1613663565b6040516104be9190615049565b60405180910390f35b6000600260003373ffffffffffffffffffffffffffffffffffffffff1673ffffffffffffffffffffffffffffffffffffffff168152602001908152602001600020905060005b818054905081101561057857610565828281548110610555577f4e487b7100000000000000000000000000000000000000000000000000000000600052603260045260246000fd5b9060005260206000200154612403565b80806105709061572d565b91505061050d565b5050565b806003600082815260200190815260200160002060050160009054906101000a900460ff166105e0576040517f08c379a00000000000000000000000000000000000000000000000000000000081526004016105d79061514d565b60405180910390fd5b600060066000848152602001908152602001600020905060005b81805490508110156107815760008060056000858581548110610646577f4e487b7100000000000000000000000000000000000000000000000000000000600052603260045260246000fd5b9060005260206000200154815260200190815260200160002060030160009054906101000a900473ffffffffffffffffffffffffffffffffffffffff1673ffffffffffffffffffffffffffffffffffffffff1673ffffffffffffffffffffffffffffffffffffffff16815260200190815260200160002060010154600560008484815481106106fe577f4e487b7100000000000000000000000000000000000000000000000000000000600052603260045260246000fd5b9060005260206000200154815260200190815260200160002060050154111561076e5761076d82828154811061075d577f4e487b7100000000000000000000000000000000000000000000000000000000600052603260045260246000fd5b9060005260206000200154611e54565b5b80806107799061572d565b9150506105fa565b50505050565b600080600760003373ffffffffffffffffffffffffffffffffffffffff1673ffffffffffffffffffffffffffffffffffffffff16815260200190815260200160002080549050905060005b8181101561088457610864600760003373ffffffffffffffffffffffffffffffffffffffff1673ffffffffffffffffffffffffffffffffffffffff1681526020019081526020016000208281548110610854577f4e487b7100000000000000000000000000000000000000000000000000000000600052603260045260246000fd5b9060005260206000200154613941565b8361086f91906154f4565b9250808061087c9061572d565b9150506107d2565b505090565b806003600082815260200190815260200160002060050160009054906101000a900460ff166108ed576040517f08c379a00000000000000000000000000000000000000000000000000000000081526004016108e49061514d565b60405180910390fd5b600060066000848152602001908152602001600020905060005b81805490508110156109725761095f82828154811061094f577f4e487b7100000000000000000000000000000000000000000000000000000000600052603260045260246000fd5b9060005260206000200154613f2b565b808061096a9061572d565b915050610907565b50505050565b610980611e0b565b81106109c1576040517f08c379a00000000000000000000000000000000000000000000000000000000081526004016109b89061510d565b60405180910390fd5b806000803373ffffffffffffffffffffffffffffffffffffffff1673ffffffffffffffffffffffffffffffffffffffff1681526020019081526020016000206001016000828254610a1291906155d5565b925050819055503373ffffffffffffffffffffffffffffffffffffffff166108fc829081150290604051600060405180830381858888f19350505050158015610a5f573d6000803e3d6000fd5b503373ffffffffffffffffffffffffffffffffffffffff167f8ad64a0ac7700dd8425ab0499f107cb6e2cd1581d803c5b8c1c79dcb8190b1af6000803373ffffffffffffffffffffffffffffffffffffffff1673ffffffffffffffffffffffffffffffffffffffff16815260200190815260200160002060010154604051610ae791906151cd565b60405180910390a250565b6000816003600082815260200190815260200160002060050160009054906101000a900460ff16610b58576040517f08c379a0000000000000000000000000000000000000000000000000000000008152600401610b4f9061514d565b60405180910390fd5b600060066000858152602001908152602001600020905060005b8180549050811015610bea57610bca828281548110610bba577f4e487b7100000000000000000000000000000000000000000000000000000000600052603260045260246000fd5b9060005260206000200154613941565b84610bd591906154f4565b93508080610be29061572d565b915050610b72565b505050919050565b60003382604051602001610c07929190614f45565b6040516020818303038152906040528051906020012060001c90506001600082815260200190815260200160002060030160009054906101000a900460ff1615610c86576040517f08c379a0000000000000000000000000000000000000000000000000000000008152600401610c7d9061508d565b60405180910390fd5b60405180608001604052808281526020013373ffffffffffffffffffffffffffffffffffffffff16815260200183815260200160011515815250600160008381526020019081526020016000206000820151816000015560208201518160010160006101000a81548173ffffffffffffffffffffffffffffffffffffffff021916908373ffffffffffffffffffffffffffffffffffffffff1602179055506040820151816002019080519060200190610d409291906142dc565b5060608201518160030160006101000a81548160ff021916908315150217905550905050600260003373ffffffffffffffffffffffffffffffffffffffff1673ffffffffffffffffffffffffffffffffffffffff1681526020019081526020016000208190806001815401808255809150506001900390600052602060002001600090919091909150557f20b331a7476f61849b1da6c4dab928456688acfc5b2a1860c817cdb2a78a7a8c8133846001604051610e0094939291906151e8565b60405180910390a15050565b6060816001600082815260200190815260200160002060030160009054906101000a900460ff16610e72576040517f08c379a0000000000000000000000000000000000000000000000000000000008152600401610e699061516d565b60405180910390fd5b823373ffffffffffffffffffffffffffffffffffffffff166001600083815260200190815260200160002060010160009054906101000a900473ffffffffffffffffffffffffffffffffffffffff1673ffffffffffffffffffffffffffffffffffffffff1614610f17576040517f08c379a0000000000000000000000000000000000000000000000000000000008152600401610f0e906150ad565b60405180910390fd5b60006004600086815260200190815260200160002080549050905060008167ffffffffffffffff811115610f74577f4e487b7100000000000000000000000000000000000000000000000000000000600052604160045260246000fd5b604051908082528060200260200182016040528015610fad57816020015b610f9a614362565b815260200190600190039081610f925790505b50905060005b8281101561122557600060036000600460008b8152602001908152602001600020848154811061100c577f4e487b7100000000000000000000000000000000000000000000000000000000600052603260045260246000fd5b9060005260206000200154815260200190815260200160002090506040518060a001604052808260000154815260200182600201805461104b906156ca565b80601f0160208091040260200160405190810160405280929190818152602001828054611077906156ca565b80156110c45780601f10611099576101008083540402835291602001916110c4565b820191906000526020600020905b8154815290600101906020018083116110a757829003601f168201915b50505050508152602001600160008460010154815260200190815260200160002060020180546110f3906156ca565b80601f016020809104026020016040519081016040528092919081815260200182805461111f906156ca565b801561116c5780601f106111415761010080835404028352916020019161116c565b820191906000526020600020905b81548152906001019060200180831161114f57829003601f168201915b505050505081526020018260030160009054906101000a900460ff1660068111156111c0577f4e487b7100000000000000000000000000000000000000000000000000000000600052602160045260246000fd5b81526020018260040154815250838381518110611206577f4e487b7100000000000000000000000000000000000000000000000000000000600052603260045260246000fd5b602002602001018190525050808061121d9061572d565b915050610fb3565b5080945050505050919050565b816003600082815260200190815260200160002060050160009054906101000a900460ff16611296576040517f08c379a000000000000000000000000000000000000000000000000000000000815260040161128d9061514d565b60405180910390fd5b3373ffffffffffffffffffffffffffffffffffffffff16600160006003600087815260200190815260200160002060010154815260200190815260200160002060010160009054906101000a900473ffffffffffffffffffffffffffffffffffffffff1673ffffffffffffffffffffffffffffffffffffffff161415611351576040517f08c379a00000000000000000000000000000000000000000000000000000000081526004016113489061518d565b60405180910390fd5b60005b600760003373ffffffffffffffffffffffffffffffffffffffff1673ffffffffffffffffffffffffffffffffffffffff168152602001908152602001600020805490508110156114b75760036000858152602001908152602001600020600101546003600060056000600760003373ffffffffffffffffffffffffffffffffffffffff1673ffffffffffffffffffffffffffffffffffffffff1681526020019081526020016000208681548110611434577f4e487b7100000000000000000000000000000000000000000000000000000000600052603260045260246000fd5b906000526020600020015481526020019081526020016000206001015481526020019081526020016000206001015414156114a4576040517f08c379a000000000000000000000000000000000000000000000000000000000815260040161149b906150ed565b60405180910390fd5b80806114af9061572d565b915050611354565b5060008383336040516020016114cf93929190614faa565b6040516020818303038152906040528051906020012060001c90506005600082815260200190815260200160002060060160019054906101000a900460ff16156115a95761151c81613f2b565b6000600560008381526020019081526020016000206005015414611575576040517f08c379a000000000000000000000000000000000000000000000000000000000815260040161156c9061512d565b60405180910390fd5b60016005600083815260200190815260200160002060060160006101000a81548160ff021916908315150217905550611728565b6040518061010001604052808281526020018581526020018481526020013373ffffffffffffffffffffffffffffffffffffffff168152602001428152602001600081526020016001151581526020016001151581525060056000838152602001908152602001600020600082015181600001556020820151816001015560408201518160020190805190602001906116439291906142dc565b5060608201518160030160006101000a81548173ffffffffffffffffffffffffffffffffffffffff021916908373ffffffffffffffffffffffffffffffffffffffff1602179055506080820151816004015560a0820151816005015560c08201518160060160006101000a81548160ff02191690831515021790555060e08201518160060160016101000a81548160ff0219169083151502179055509050507f0eb7e390b39e8c2c23c7f1d28c6d40850c1ba8a092f6c73b262f1825302e812081858533426000600160405161171f9796959493929190615234565b60405180910390a15b60066000858152602001908152602001600020819080600181540180825580915050600190039060005260206000200160009091909190915055600760003373ffffffffffffffffffffffffffffffffffffffff1673ffffffffffffffffffffffffffffffffffffffff16815260200190815260200160002081908060018154018082558091505060019003906000526020600020016000909190919091505550505050565b6000600260003373ffffffffffffffffffffffffffffffffffffffff1673ffffffffffffffffffffffffffffffffffffffff168152602001908152602001600020905060005b818054905081101561187f5761186c82828154811061185c577f4e487b7100000000000000000000000000000000000000000000000000000000600052603260045260246000fd5b9060005260206000200154612bba565b80806118779061572d565b915050611814565b5050565b60606000600260003373ffffffffffffffffffffffffffffffffffffffff1673ffffffffffffffffffffffffffffffffffffffff1681526020019081526020016000208054905090506000805b828110156119905760046000600260003373ffffffffffffffffffffffffffffffffffffffff1673ffffffffffffffffffffffffffffffffffffffff1681526020019081526020016000208381548110611953577f4e487b7100000000000000000000000000000000000000000000000000000000600052603260045260246000fd5b90600052602060002001548152602001908152602001600020805490508261197b91906154f4565b915080806119889061572d565b9150506118d0565b5060008167ffffffffffffffff8111156119d3577f4e487b7100000000000000000000000000000000000000000000000000000000600052604160045260246000fd5b604051908082528060200260200182016040528015611a0c57816020015b6119f96143c9565b8152602001906001900390816119f15790505b5090506000805b84811015611e0057600060046000600260003373ffffffffffffffffffffffffffffffffffffffff1673ffffffffffffffffffffffffffffffffffffffff1681526020019081526020016000208481548110611a98577f4e487b7100000000000000000000000000000000000000000000000000000000600052603260045260246000fd5b9060005260206000200154815260200190815260200160002080549050905060005b81811015611deb5760006003600060046000600260003373ffffffffffffffffffffffffffffffffffffffff1673ffffffffffffffffffffffffffffffffffffffff1681526020019081526020016000208881548110611b43577f4e487b7100000000000000000000000000000000000000000000000000000000600052603260045260246000fd5b906000526020600020015481526020019081526020016000208481548110611b94577f4e487b7100000000000000000000000000000000000000000000000000000000600052603260045260246000fd5b9060005260206000200154815260200190815260200160002090506040518060e0016040528082600001548152602001826002018054611bd3906156ca565b80601f0160208091040260200160405190810160405280929190818152602001828054611bff906156ca565b8015611c4c5780601f10611c2157610100808354040283529160200191611c4c565b820191906000526020600020905b815481529060010190602001808311611c2f57829003601f168201915b5050505050815260200160016000846001015481526020019081526020016000206002018054611c7b906156ca565b80601f0160208091040260200160405190810160405280929190818152602001828054611ca7906156ca565b8015611cf45780601f10611cc957610100808354040283529160200191611cf4565b820191906000526020600020905b815481529060010190602001808311611cd757829003601f168201915b505050505081526020018260030160009054906101000a900460ff166006811115611d48577f4e487b7100000000000000000000000000000000000000000000000000000000600052602160045260246000fd5b8152602001826004015481526020016006600084600001548152602001908152602001600020805490508152602001611d848360000154610af2565b815250868680611d939061572d565b975081518110611dcc577f4e487b7100000000000000000000000000000000000000000000000000000000600052603260045260246000fd5b6020026020010181905250508080611de39061572d565b915050611aba565b50508080611df89061572d565b915050611a13565b508194505050505090565b60008060003373ffffffffffffffffffffffffffffffffffffffff1673ffffffffffffffffffffffffffffffffffffffff16815260200190815260200160002060010154905090565b806005600082815260200190815260200160002060060160019054906101000a900460ff16611e8257600080fd5b816005600082815260200190815260200160002060060160019054906101000a900460ff168015611ed357506005600082815260200190815260200160002060060160009054906101000a900460ff165b611edc57600080fd5b823373ffffffffffffffffffffffffffffffffffffffff166005600083815260200190815260200160002060030160009054906101000a900473ffffffffffffffffffffffffffffffffffffffff1673ffffffffffffffffffffffffffffffffffffffff161480611fda57503373ffffffffffffffffffffffffffffffffffffffff1660016000600360006005600087815260200190815260200160002060010154815260200190815260200160002060010154815260200190815260200160002060010160009054906101000a900473ffffffffffffffffffffffffffffffffffffffff1673ffffffffffffffffffffffffffffffffffffffff16145b611fe357600080fd5b611fec84613f2b565b60006005600086815260200190815260200160002060060160006101000a81548160ff02191690831515021790555060006006600060056000888152602001908152602001600020600101548152602001908152602001600020905060005b818054905081101561219e5785828281548110612091577f4e487b7100000000000000000000000000000000000000000000000000000000600052603260045260246000fd5b9060005260206000200154141561218b5781600183805490506120b491906155d5565b815481106120eb577f4e487b7100000000000000000000000000000000000000000000000000000000600052603260045260246000fd5b906000526020600020015482828154811061212f577f4e487b7100000000000000000000000000000000000000000000000000000000600052603260045260246000fd5b906000526020600020018190555081805480612174577f4e487b7100000000000000000000000000000000000000000000000000000000600052603160045260246000fd5b600190038181906000526020600020016000905590555b80806121969061572d565b91505061204b565b506000600760006005600089815260200190815260200160002060030160009054906101000a900473ffffffffffffffffffffffffffffffffffffffff1673ffffffffffffffffffffffffffffffffffffffff1673ffffffffffffffffffffffffffffffffffffffff168152602001908152602001600020905060005b818054905081101561236e5786828281548110612261577f4e487b7100000000000000000000000000000000000000000000000000000000600052603260045260246000fd5b9060005260206000200154141561235b57816001838054905061228491906155d5565b815481106122bb577f4e487b7100000000000000000000000000000000000000000000000000000000600052603260045260246000fd5b90600052602060002001548282815481106122ff577f4e487b7100000000000000000000000000000000000000000000000000000000600052603260045260246000fd5b906000526020600020018190555081805480612344577f4e487b7100000000000000000000000000000000000000000000000000000000600052603160045260246000fd5b600190038181906000526020600020016000905590555b80806123669061572d565b91505061221b565b507f47b7a1650368c05b9bf7d70c954c8a12d03323092dee7781a6df3dbae763bd20866005600089815260200190815260200160002060010154600560008a815260200190815260200160002060050154600560008b815260200190815260200160002060060160009054906101000a900460ff166040516123f39493929190615304565b60405180910390a1505050505050565b806001600082815260200190815260200160002060030160009054906101000a900460ff16612467576040517f08c379a000000000000000000000000000000000000000000000000000000000815260040161245e9061516d565b60405180910390fd5b813373ffffffffffffffffffffffffffffffffffffffff166001600083815260200190815260200160002060010160009054906101000a900473ffffffffffffffffffffffffffffffffffffffff1673ffffffffffffffffffffffffffffffffffffffff161461250c576040517f08c379a0000000000000000000000000000000000000000000000000000000008152600401612503906150ad565b60405180910390fd5b600060046000858152602001908152602001600020905060005b81805490508110156125915761257e82828154811061256e577f4e487b7100000000000000000000000000000000000000000000000000000000600052603260045260246000fd5b906000526020600020015461057c565b80806125899061572d565b915050612526565b5050505050565b836001600082815260200190815260200160002060030160009054906101000a900460ff166125fc576040517f08c379a00000000000000000000000000000000000000000000000000000000081526004016125f39061516d565b60405180910390fd5b843373ffffffffffffffffffffffffffffffffffffffff166001600083815260200190815260200160002060010160009054906101000a900473ffffffffffffffffffffffffffffffffffffffff1673ffffffffffffffffffffffffffffffffffffffff16146126a1576040517f08c379a0000000000000000000000000000000000000000000000000000000008152600401612698906150ad565b60405180910390fd5b60008685856040516020016126b893929190614f6d565b6040516020818303038152906040528051906020012060001c90506003600082815260200190815260200160002060050160009054906101000a900460ff1615612737576040517f08c379a000000000000000000000000000000000000000000000000000000000815260040161272e906151ad565b60405180910390fd5b6040518060c0016040528082815260200188815260200187815260200186600681111561278d577f4e487b7100000000000000000000000000000000000000000000000000000000600052602160045260246000fd5b81526020018581526020016001151581525060036000838152602001908152602001600020600082015181600001556020820151816001015560408201518160020190805190602001906127e29291906142dc565b5060608201518160030160006101000a81548160ff02191690836006811115612834577f4e487b7100000000000000000000000000000000000000000000000000000000600052602160045260246000fd5b02179055506080820151816004015560a08201518160050160006101000a81548160ff021916908315150217905550905050600460008881526020019081526020016000208190806001815401808255809150506001900390600052602060002001600090919091909150557f0dda989d88e16176e2e7d349a68742ccada15c84d994e50983680295280c5c6381888888886040516128d79594939291906152aa565b60405180910390a150505050505050565b6000816001600082815260200190815260200160002060030160009054906101000a900460ff1661294e576040517f08c379a00000000000000000000000000000000000000000000000000000000081526004016129459061516d565b60405180910390fd5b823373ffffffffffffffffffffffffffffffffffffffff166001600083815260200190815260200160002060010160009054906101000a900473ffffffffffffffffffffffffffffffffffffffff1673ffffffffffffffffffffffffffffffffffffffff16146129f3576040517f08c379a00000000000000000000000000000000000000000000000000000000081526004016129ea906150ad565b60405180910390fd5b600060046000868152602001908152602001600020905060005b8180549050811015612a8557612a65828281548110612a55577f4e487b7100000000000000000000000000000000000000000000000000000000600052603260045260246000fd5b9060005260206000200154610af2565b85612a7091906154f4565b94508080612a7d9061572d565b915050612a0d565b50505050919050565b60003411612ad1576040517f08c379a0000000000000000000000000000000000000000000000000000000008152600401612ac8906150cd565b60405180910390fd5b346000803373ffffffffffffffffffffffffffffffffffffffff1673ffffffffffffffffffffffffffffffffffffffff1681526020019081526020016000206001016000828254612b2291906154f4565b925050819055503373ffffffffffffffffffffffffffffffffffffffff167f8ad64a0ac7700dd8425ab0499f107cb6e2cd1581d803c5b8c1c79dcb8190b1af6000803373ffffffffffffffffffffffffffffffffffffffff1673ffffffffffffffffffffffffffffffffffffffff16815260200190815260200160002060010154604051612bb091906151cd565b60405180910390a2565b806001600082815260200190815260200160002060030160009054906101000a900460ff16612c1e576040517f08c379a0000000000000000000000000000000000000000000000000000000008152600401612c159061516d565b60405180910390fd5b813373ffffffffffffffffffffffffffffffffffffffff166001600083815260200190815260200160002060010160009054906101000a900473ffffffffffffffffffffffffffffffffffffffff1673ffffffffffffffffffffffffffffffffffffffff1614612cc3576040517f08c379a0000000000000000000000000000000000000000000000000000000008152600401612cba906150ad565b60405180910390fd5b600060046000858152602001908152602001600020905060005b8180549050811015612d4857612d35828281548110612d25577f4e487b7100000000000000000000000000000000000000000000000000000000600052603260045260246000fd5b9060005260206000200154610889565b8080612d409061572d565b915050612cdd565b5050505050565b60606000600760003373ffffffffffffffffffffffffffffffffffffffff1673ffffffffffffffffffffffffffffffffffffffff16815260200190815260200160002080549050905060008167ffffffffffffffff811115612dda577f4e487b7100000000000000000000000000000000000000000000000000000000600052604160045260246000fd5b604051908082528060200260200182016040528015612e1357816020015b612e0061443e565b815260200190600190039081612df85790505b50905060005b8281101561324a57600060056000600760003373ffffffffffffffffffffffffffffffffffffffff1673ffffffffffffffffffffffffffffffffffffffff1681526020019081526020016000208481548110612e9e577f4e487b7100000000000000000000000000000000000000000000000000000000600052603260045260246000fd5b906000526020600020015481526020019081526020016000209050604051806101000160405280826000015481526020016001600060036000866001015481526020019081526020016000206001015481526020019081526020016000206002018054612f0a906156ca565b80601f0160208091040260200160405190810160405280929190818152602001828054612f36906156ca565b8015612f835780601f10612f5857610100808354040283529160200191612f83565b820191906000526020600020905b815481529060010190602001808311612f6657829003601f168201915b5050505050815260200160036000846001015481526020019081526020016000206002018054612fb2906156ca565b80601f0160208091040260200160405190810160405280929190818152602001828054612fde906156ca565b801561302b5780601f106130005761010080835404028352916020019161302b565b820191906000526020600020905b81548152906001019060200180831161300e57829003601f168201915b50505050508152602001600360008460010154815260200190815260200160002060030160009054906101000a900460ff166006811115613095577f4e487b7100000000000000000000000000000000000000000000000000000000600052602160045260246000fd5b815260200160036000846001015481526020019081526020016000206004015481526020018260020180546130c9906156ca565b80601f01602080910402602001604051908101604052809291908181526020018280546130f5906156ca565b80156131425780601f1061311757610100808354040283529160200191613142565b820191906000526020600020905b81548152906001019060200180831161312557829003601f168201915b505050505081526020016131d6600760003373ffffffffffffffffffffffffffffffffffffffff1673ffffffffffffffffffffffffffffffffffffffff16815260200190815260200160002085815481106131c6577f4e487b7100000000000000000000000000000000000000000000000000000000600052603260045260246000fd5b9060005260206000200154613941565b81526020018260060160009054906101000a900460ff16151581525083838151811061322b577f4e487b7100000000000000000000000000000000000000000000000000000000600052603260045260246000fd5b60200260200101819052505080806132429061572d565b915050612e19565b50809250505090565b600080600260003373ffffffffffffffffffffffffffffffffffffffff1673ffffffffffffffffffffffffffffffffffffffff168152602001908152602001600020905060005b8180549050811015613312576132f28282815481106132e2577f4e487b7100000000000000000000000000000000000000000000000000000000600052603260045260246000fd5b90600052602060002001546128e8565b836132fd91906154f4565b9250808061330a9061572d565b91505061329a565b505090565b60606000600260003373ffffffffffffffffffffffffffffffffffffffff1673ffffffffffffffffffffffffffffffffffffffff16815260200190815260200160002080549050905060008167ffffffffffffffff8111156133a2577f4e487b7100000000000000000000000000000000000000000000000000000000600052604160045260246000fd5b6040519080825280602002602001820160405280156133db57816020015b6133c86144bd565b8152602001906001900390816133c05790505b50905060005b8281101561365a576000600260003373ffffffffffffffffffffffffffffffffffffffff1673ffffffffffffffffffffffffffffffffffffffff1681526020019081526020016000208281548110613462577f4e487b7100000000000000000000000000000000000000000000000000000000600052603260045260246000fd5b906000526020600020015490506000805b600460008481526020019081526020016000208054905081101561351d57600660006004600086815260200190815260200160002083815481106134e0577f4e487b7100000000000000000000000000000000000000000000000000000000600052603260045260246000fd5b90600052602060002001548152602001908152602001600020805490508261350891906154f4565b915080806135159061572d565b915050613473565b506040518060a00160405280838152602001600160008581526020019081526020016000206002018054613550906156ca565b80601f016020809104026020016040519081016040528092919081815260200182805461357c906156ca565b80156135c95780601f1061359e576101008083540402835291602001916135c9565b820191906000526020600020905b8154815290600101906020018083116135ac57829003601f168201915b50505050508152602001600460008581526020019081526020016000208054905081526020018281526020016135fe846128e8565b81525084848151811061363a577f4e487b7100000000000000000000000000000000000000000000000000000000600052603260045260246000fd5b6020026020010181905250505080806136529061572d565b9150506133e1565b50809250505090565b60606000600260003373ffffffffffffffffffffffffffffffffffffffff1673ffffffffffffffffffffffffffffffffffffffff16815260200190815260200160002080549050905060008167ffffffffffffffff8111156136ee577f4e487b7100000000000000000000000000000000000000000000000000000000600052604160045260246000fd5b60405190808252806020026020018201604052801561372757816020015b6137146144ec565b81526020019060019003908161370c5790505b50905060005b828110156139385760016000600260003373ffffffffffffffffffffffffffffffffffffffff1673ffffffffffffffffffffffffffffffffffffffff16815260200190815260200160002083815481106137b0577f4e487b7100000000000000000000000000000000000000000000000000000000600052603260045260246000fd5b90600052602060002001548152602001908152602001600020604051806080016040529081600082015481526020016001820160009054906101000a900473ffffffffffffffffffffffffffffffffffffffff1673ffffffffffffffffffffffffffffffffffffffff1673ffffffffffffffffffffffffffffffffffffffff168152602001600282018054613844906156ca565b80601f0160208091040260200160405190810160405280929190818152602001828054613870906156ca565b80156138bd5780601f10613892576101008083540402835291602001916138bd565b820191906000526020600020905b8154815290600101906020018083116138a057829003601f168201915b505050505081526020016003820160009054906101000a900460ff16151515158152505082828151811061391a577f4e487b7100000000000000000000000000000000000000000000000000000000600052603260045260246000fd5b602002602001018190525080806139309061572d565b91505061372d565b50809250505090565b6000816005600082815260200190815260200160002060060160019054906101000a900460ff1661397157600080fd5b823373ffffffffffffffffffffffffffffffffffffffff166005600083815260200190815260200160002060030160009054906101000a900473ffffffffffffffffffffffffffffffffffffffff1673ffffffffffffffffffffffffffffffffffffffff161480613a6f57503373ffffffffffffffffffffffffffffffffffffffff1660016000600360006005600087815260200190815260200160002060010154815260200190815260200160002060010154815260200190815260200160002060010160009054906101000a900473ffffffffffffffffffffffffffffffffffffffff1673ffffffffffffffffffffffffffffffffffffffff16145b613a7857600080fd5b60006005600086815260200190815260200160002090508060060160009054906101000a900460ff1615613eff576000600360008360010154815260200190815260200160002060030160009054906101000a900460ff169050600060036000846001015481526020019081526020016000206004015490506000836004015442613b0391906155d5565b905060006006811115613b3f577f4e487b7100000000000000000000000000000000000000000000000000000000600052602160045260246000fd5b836006811115613b78577f4e487b7100000000000000000000000000000000000000000000000000000000600052602160045260246000fd5b1415613b9257603c81613b8b919061554a565b9050613eed565b60016006811115613bcc577f4e487b7100000000000000000000000000000000000000000000000000000000600052602160045260246000fd5b836006811115613c05577f4e487b7100000000000000000000000000000000000000000000000000000000600052602160045260246000fd5b1415613c2057610e1081613c19919061554a565b9050613eec565b60026006811115613c5a577f4e487b7100000000000000000000000000000000000000000000000000000000600052602160045260246000fd5b836006811115613c93577f4e487b7100000000000000000000000000000000000000000000000000000000600052602160045260246000fd5b1415613caf576201518081613ca8919061554a565b9050613eeb565b60036006811115613ce9577f4e487b7100000000000000000000000000000000000000000000000000000000600052602160045260246000fd5b836006811115613d22577f4e487b7100000000000000000000000000000000000000000000000000000000600052602160045260246000fd5b1415613d3e5762093a8081613d37919061554a565b9050613eea565b60046006811115613d78577f4e487b7100000000000000000000000000000000000000000000000000000000600052602160045260246000fd5b836006811115613db1577f4e487b7100000000000000000000000000000000000000000000000000000000600052602160045260246000fd5b1415613dcd5762278d0081613dc6919061554a565b9050613ee9565b60056006811115613e07577f4e487b7100000000000000000000000000000000000000000000000000000000600052602160045260246000fd5b836006811115613e40577f4e487b7100000000000000000000000000000000000000000000000000000000600052602160045260246000fd5b1415613e5c576276a70081613e55919061554a565b9050613ee8565b600680811115613e95577f4e487b7100000000000000000000000000000000000000000000000000000000600052602160045260246000fd5b836006811115613ece577f4e487b7100000000000000000000000000000000000000000000000000000000600052602160045260246000fd5b1415613ee7576301e1338081613ee4919061554a565b90505b5b5b5b5b5b5b8181613ef9919061557b565b96505050505b600560008681526020019081526020016000206005015484613f2191906154f4565b9350505050919050565b806005600082815260200190815260200160002060060160019054906101000a900460ff16613f5957600080fd5b813373ffffffffffffffffffffffffffffffffffffffff166005600083815260200190815260200160002060030160009054906101000a900473ffffffffffffffffffffffffffffffffffffffff1673ffffffffffffffffffffffffffffffffffffffff16148061405757503373ffffffffffffffffffffffffffffffffffffffff1660016000600360006005600087815260200190815260200160002060010154815260200190815260200160002060010154815260200190815260200160002060010160009054906101000a900473ffffffffffffffffffffffffffffffffffffffff1673ffffffffffffffffffffffffffffffffffffffff16145b61406057600080fd5b600061406b84613941565b905060006005600086815260200190815260200160002060030160009054906101000a900473ffffffffffffffffffffffffffffffffffffffff16905060008060008373ffffffffffffffffffffffffffffffffffffffff1673ffffffffffffffffffffffffffffffffffffffff168152602001908152602001600020600101548310156140fb57829050614140565b6000808373ffffffffffffffffffffffffffffffffffffffff1673ffffffffffffffffffffffffffffffffffffffff1681526020019081526020016000206001015490505b806000808473ffffffffffffffffffffffffffffffffffffffff1673ffffffffffffffffffffffffffffffffffffffff168152602001908152602001600020600101600082825461419191906155d5565b92505081905550806000806141a589614241565b73ffffffffffffffffffffffffffffffffffffffff1673ffffffffffffffffffffffffffffffffffffffff16815260200190815260200160002060010160008282546141f191906154f4565b92505081905550426005600088815260200190815260200160002060040181905550808361421f91906155d5565b6005600088815260200190815260200160002060050181905550505050505050565b6000816005600082815260200190815260200160002060060160019054906101000a900460ff1661427157600080fd5b60016000600360006005600088815260200190815260200160002060010154815260200190815260200160002060010154815260200190815260200160002060010160009054906101000a900473ffffffffffffffffffffffffffffffffffffffff16915050919050565b8280546142e8906156ca565b90600052602060002090601f01602090048101928261430a5760008555614351565b82601f1061432357805160ff1916838001178555614351565b82800160010185558215614351579182015b82811115614350578251825591602001919060010190614335565b5b50905061435e919061452c565b5090565b6040518060a00160405280600081526020016060815260200160608152602001600060068111156143bc577f4e487b7100000000000000000000000000000000000000000000000000000000600052602160045260246000fd5b8152602001600081525090565b6040518060e0016040528060008152602001606081526020016060815260200160006006811115614423577f4e487b7100000000000000000000000000000000000000000000000000000000600052602160045260246000fd5b81526020016000815260200160008152602001600081525090565b60405180610100016040528060008152602001606081526020016060815260200160006006811115614499577f4e487b7100000000000000000000000000000000000000000000000000000000600052602160045260246000fd5b81526020016000815260200160608152602001600081526020016000151581525090565b6040518060a0016040528060008152602001606081526020016000815260200160008152602001600081525090565b604051806080016040528060008152602001600073ffffffffffffffffffffffffffffffffffffffff168152602001606081526020016000151581525090565b5b8082111561454557600081600090555060010161452d565b5090565b600061455c6145578461536e565b615349565b90508281526020810184848401111561457457600080fd5b61457f848285615688565b509392505050565b60008135905061459681615b12565b92915050565b600082601f8301126145ad57600080fd5b81356145bd848260208601614549565b91505092915050565b6000813590506145d581615b22565b92915050565b6000602082840312156145ed57600080fd5b600082013567ffffffffffffffff81111561460757600080fd5b6146138482850161459c565b91505092915050565b60006020828403121561462e57600080fd5b600061463c848285016145c6565b91505092915050565b6000806040838503121561465857600080fd5b6000614666858286016145c6565b925050602083013567ffffffffffffffff81111561468357600080fd5b61468f8582860161459c565b9150509250929050565b600080600080608085870312156146af57600080fd5b60006146bd878288016145c6565b945050602085013567ffffffffffffffff8111156146da57600080fd5b6146e68782880161459c565b93505060406146f787828801614587565b9250506060614708878288016145c6565b91505092959194509250565b60006147208383614c59565b905092915050565b60006147348383614cd6565b905092915050565b60006147488383614d79565b905092915050565b600061475c8383614def565b905092915050565b60006147708383614e52565b905092915050565b61478181615609565b82525050565b61479081615609565b82525050565b6147a76147a282615609565b615776565b82525050565b60006147b8826153ef565b6147c28185615472565b9350836020820285016147d48561539f565b8060005b8581101561481057848403895281516147f18582614714565b94506147fc83615431565b925060208a019950506001810190506147d8565b50829750879550505050505092915050565b600061482d826153fa565b6148378185615483565b935083602082028501614849856153af565b8060005b8581101561488557848403895281516148668582614728565b94506148718361543e565b925060208a0199505060018101905061484d565b50829750879550505050505092915050565b60006148a282615405565b6148ac8185615494565b9350836020820285016148be856153bf565b8060005b858110156148fa57848403895281516148db858261473c565b94506148e68361544b565b925060208a019950506001810190506148c2565b50829750879550505050505092915050565b600061491782615410565b61492181856154a5565b935083602082028501614933856153cf565b8060005b8581101561496f57848403895281516149508582614750565b945061495b83615458565b925060208a01995050600181019050614937565b50829750879550505050505092915050565b600061498c8261541b565b61499681856154b6565b9350836020820285016149a8856153df565b8060005b858110156149e457848403895281516149c58582614764565b94506149d083615465565b925060208a019950506001810190506149ac565b50829750879550505050505092915050565b6149ff8161561b565b82525050565b614a0e8161561b565b82525050565b614a1d81615664565b82525050565b614a2c81615664565b82525050565b614a43614a3e82615664565b6157a4565b82525050565b614a5281615676565b82525050565b6000614a6382615426565b614a6d81856154c7565b9350614a7d818560208601615697565b614a86816158a1565b840191505092915050565b6000614a9c82615426565b614aa681856154d8565b9350614ab6818560208601615697565b614abf816158a1565b840191505092915050565b6000614ad582615426565b614adf81856154e9565b9350614aef818560208601615697565b80840191505092915050565b6000614b08601f836154d8565b9150614b13826158cc565b602082019050919050565b6000614b2b602b836154d8565b9150614b36826158f5565b604082019050919050565b6000614b4e602a836154d8565b9150614b5982615944565b604082019050919050565b6000614b716026836154d8565b9150614b7c82615993565b604082019050919050565b6000614b946014836154d8565b9150614b9f826159e2565b602082019050919050565b6000614bb7602b836154d8565b9150614bc282615a0b565b604082019050919050565b6000614bda6010836154d8565b9150614be582615a5a565b602082019050919050565b6000614bfd6013836154d8565b9150614c0882615a83565b602082019050919050565b6000614c20601e836154d8565b9150614c2b82615aac565b602082019050919050565b6000614c436017836154d8565b9150614c4e82615ad5565b602082019050919050565b600060a083016000830151614c716000860182614f10565b5060208301518482036020860152614c898282614a58565b91505060408301518482036040860152614ca38282614a58565b9150506060830151614cb86060860182614a14565b506080830151614ccb6080860182614f10565b508091505092915050565b600060e083016000830151614cee6000860182614f10565b5060208301518482036020860152614d068282614a58565b91505060408301518482036040860152614d208282614a58565b9150506060830151614d356060860182614a14565b506080830151614d486080860182614f10565b5060a0830151614d5b60a0860182614f10565b5060c0830151614d6e60c0860182614f10565b508091505092915050565b600060a083016000830151614d916000860182614f10565b5060208301518482036020860152614da98282614a58565b9150506040830151614dbe6040860182614f10565b506060830151614dd16060860182614f10565b506080830151614de46080860182614f10565b508091505092915050565b6000608083016000830151614e076000860182614f10565b506020830151614e1a6020860182614778565b5060408301518482036040860152614e328282614a58565b9150506060830151614e4760608601826149f6565b508091505092915050565b600061010083016000830151614e6b6000860182614f10565b5060208301518482036020860152614e838282614a58565b91505060408301518482036040860152614e9d8282614a58565b9150506060830151614eb26060860182614a14565b506080830151614ec56080860182614f10565b5060a083015184820360a0860152614edd8282614a58565b91505060c0830151614ef260c0860182614f10565b5060e0830151614f0560e08601826149f6565b508091505092915050565b614f198161565a565b82525050565b614f288161565a565b82525050565b614f3f614f3a8261565a565b61579a565b82525050565b6000614f518285614796565b601482019150614f618284614aca565b91508190509392505050565b6000614f798286614f2e565b602082019150614f898285614a32565b600182019150614f998284614f2e565b602082019150819050949350505050565b6000614fb68286614f2e565b602082019150614fc68285614aca565b9150614fd28284614796565b601482019150819050949350505050565b60006020820190508181036000830152614ffd81846147ad565b905092915050565b6000602082019050818103600083015261501f8184614822565b905092915050565b600060208201905081810360008301526150418184614897565b905092915050565b60006020820190508181036000830152615063818461490c565b905092915050565b600060208201905081810360008301526150858184614981565b905092915050565b600060208201905081810360008301526150a681614afb565b9050919050565b600060208201905081810360008301526150c681614b1e565b9050919050565b600060208201905081810360008301526150e681614b41565b9050919050565b6000602082019050818103600083015261510681614b64565b9050919050565b6000602082019050818103600083015261512681614b87565b9050919050565b6000602082019050818103600083015261514681614baa565b9050919050565b6000602082019050818103600083015261516681614bcd565b9050919050565b6000602082019050818103600083015261518681614bf0565b9050919050565b600060208201905081810360008301526151a681614c13565b9050919050565b600060208201905081810360008301526151c681614c36565b9050919050565b60006020820190506151e26000830184614f1f565b92915050565b60006080820190506151fd6000830187614f1f565b61520a6020830186614787565b818103604083015261521c8185614a91565b905061522b6060830184614a05565b95945050505050565b600060e082019050615249600083018a614f1f565b6152566020830189614f1f565b81810360408301526152688188614a91565b90506152776060830187614787565b6152846080830186614f1f565b61529160a0830185614a49565b61529e60c0830184614a05565b98975050505050505050565b600060a0820190506152bf6000830188614f1f565b6152cc6020830187614f1f565b81810360408301526152de8186614a91565b90506152ed6060830185614a23565b6152fa6080830184614f1f565b9695505050505050565b60006080820190506153196000830187614f1f565b6153266020830186614f1f565b6153336040830185614f1f565b6153406060830184614a05565b95945050505050565b6000615353615364565b905061535f82826156fc565b919050565b6000604051905090565b600067ffffffffffffffff82111561538957615388615872565b5b615392826158a1565b9050602081019050919050565b6000819050602082019050919050565b6000819050602082019050919050565b6000819050602082019050919050565b6000819050602082019050919050565b6000819050602082019050919050565b600081519050919050565b600081519050919050565b600081519050919050565b600081519050919050565b600081519050919050565b600081519050919050565b6000602082019050919050565b6000602082019050919050565b6000602082019050919050565b6000602082019050919050565b6000602082019050919050565b600082825260208201905092915050565b600082825260208201905092915050565b600082825260208201905092915050565b600082825260208201905092915050565b600082825260208201905092915050565b600082825260208201905092915050565b600082825260208201905092915050565b600081905092915050565b60006154ff8261565a565b915061550a8361565a565b9250827fffffffffffffffffffffffffffffffffffffffffffffffffffffffffffffffff0382111561553f5761553e6157b6565b5b828201905092915050565b60006155558261565a565b91506155608361565a565b9250826155705761556f6157e5565b5b828204905092915050565b60006155868261565a565b91506155918361565a565b9250817fffffffffffffffffffffffffffffffffffffffffffffffffffffffffffffffff04831182151516156155ca576155c96157b6565b5b828202905092915050565b60006155e08261565a565b91506155eb8361565a565b9250828210156155fe576155fd6157b6565b5b828203905092915050565b60006156148261563a565b9050919050565b60008115159050919050565b600081905061563582615afe565b919050565b600073ffffffffffffffffffffffffffffffffffffffff82169050919050565b6000819050919050565b600061566f82615627565b9050919050565b60006156818261565a565b9050919050565b82818337600083830152505050565b60005b838110156156b557808201518184015260208101905061569a565b838111156156c4576000848401525b50505050565b600060028204905060018216806156e257607f821691505b602082108114156156f6576156f5615843565b5b50919050565b615705826158a1565b810181811067ffffffffffffffff8211171561572457615723615872565b5b80604052505050565b60006157388261565a565b91507fffffffffffffffffffffffffffffffffffffffffffffffffffffffffffffffff82141561576b5761576a6157b6565b5b600182019050919050565b600061578182615788565b9050919050565b6000615793826158bf565b9050919050565b6000819050919050565b60006157af826158b2565b9050919050565b7f4e487b7100000000000000000000000000000000000000000000000000000000600052601160045260246000fd5b7f4e487b7100000000000000000000000000000000000000000000000000000000600052601260045260246000fd5b7f4e487b7100000000000000000000000000000000000000000000000000000000600052602160045260246000fd5b7f4e487b7100000000000000000000000000000000000000000000000000000000600052602260045260246000fd5b7f4e487b7100000000000000000000000000000000000000000000000000000000600052604160045260246000fd5b6000601f19601f8301169050919050565b60008160f81b9050919050565b60008160601b9050919050565b7f5365727669636520636f646520697320616c72656164792070726573656e7400600082015250565b7f55736572206e6f7420746865206f776e6572206f66207468652072657175657360008201527f7465642073657276696365000000000000000000000000000000000000000000602082015250565b7f4465706f73697420616d6f756e742073686f756c64206265206772656174657260008201527f207468616e207a65726f00000000000000000000000000000000000000000000602082015250565b7f5573657220616c7265616479207375627363726962656420746f20746865207360008201527f6572766963650000000000000000000000000000000000000000000000000000602082015250565b7f496e737566696369656e742042616c616e636521000000000000000000000000600082015250565b7f557365722062616c616e636520696e73756666696369656e7420746f2073657460008201527f746c65206f766572647565000000000000000000000000000000000000000000602082015250565b7f506c616e206e6f742070726573656e7400000000000000000000000000000000600082015250565b7f53657276696365206e6f742070726573656e7400000000000000000000000000600082015250565b7f4f776e6572206e6f7420616c6c6f77656420746f207375627363726962650000600082015250565b7f506c616e20697320616c72656164792070726573656e74000000000000000000600082015250565b60078110615b0f57615b0e615814565b5b50565b60078110615b1f57600080fd5b50565b615b2b8161565a565b8114615b3657600080fd5b5056fea2646970667358221220fabb924042e61b602b1b133c623e87f2c6222d97eb23f5f3ade0feb56788ea1064736f6c63430008040033",
  "immutableReferences": {},
  "source": "// SPDX-License-Identifier: UNLICENSED\n\npragma solidity 0.8.4;\nimport './ServicePlans.sol';\n\n/**\n * @title UserPlanSubscriptions\n * @dev Extension of User side contract for users with subscription built over UserServices\n */\ncontract UserPlanSubscriptions is ServicePlans {\n  struct Subscription {\n    uint256 subscriptionId;\n    uint256 planId;\n    string userIdHash;\n    address userAddress;\n    uint256 lastSettledTime;\n    uint256 overdue;\n    bool isActive;\n    bool isPresent;\n  }\n\n  struct UserSubsDetails {\n    uint256 subscriptionId;\n    string serviceCode;\n    string planCode;\n    BillingType billingFrequency;\n    uint256 costPerBilling;\n    string userIdHash;\n    uint256 amountDue;\n    bool isActive;\n  }\n\n  struct ServiceDetails {\n    uint256 serviceId;\n    string serviceCode;\n    uint256 numActivePlans;\n    uint256 numActiveSubs;\n    uint256 serviceCollectable;\n  }\n\n  struct PlanDetails {\n    uint256 planId;\n    string planCode;\n    string serviceCode;\n    BillingType billingFrequency;\n    uint256 costPerBilling;\n    uint256 numActiveSubs;\n    uint256 planCollectable;\n  }\n\n  event SubscriptionCreated (\n    uint256 subscriptionId,\n    uint256 planId,\n    string userIdHash,\n    address userAddress,\n    uint256 lastSettledTime,\n    uint256 overdue,\n    bool isActive\n  );\n\n  event Unsubscribed (\n    uint256 subscriptionId,\n    uint256 planId,\n    uint256 overdue,\n    bool isActive\n  );\n\n  mapping(uint256 => Subscription) subscriptions;\n  mapping(uint256 => uint256[]) planToSubscriptions;\n  mapping(address => uint256[]) userToSubscriptions;\n\n  modifier subscriptionIsPresent(uint256 _subscriptionId) {\n    require(subscriptions[_subscriptionId].isPresent);\n    _;\n  }\n\n  modifier subscriptionIsActive(uint256 _subscriptionId) {\n    require(subscriptions[_subscriptionId].isPresent && subscriptions[_subscriptionId].isActive);\n    _;\n  }\n\n  modifier isSubscribedTo(uint256 _subscriptionId) {\n    require(subscriptions[_subscriptionId].userAddress == msg.sender);\n    _;\n  }\n\n  modifier isOwnerOfSubscription(uint256 _subscriptionId) {\n    require(services[plans[subscriptions[_subscriptionId].planId].serviceId].owner == msg.sender);\n    _;\n  }\n\n  modifier isSubscribedToOrOwner(uint256 _subscriptionId) {\n    require(\n      subscriptions[_subscriptionId].userAddress == msg.sender ||\n        services[plans[subscriptions[_subscriptionId].planId].serviceId].owner == msg.sender\n    );\n    _;\n  }\n\n  function _calculateSubscriptionDue(uint256 _subscriptionId)\n    internal\n    view\n    subscriptionIsPresent(_subscriptionId)\n    isSubscribedToOrOwner(_subscriptionId)\n    returns (uint256 _subscriptionDue)\n  {\n    Subscription storage _sub = subscriptions[_subscriptionId];\n    if (_sub.isActive) {\n      BillingType _billType = plans[_sub.planId].billingFrequency;\n      uint256 _costPerBill = plans[_sub.planId].costPerBilling;\n      uint256 _billedTime = (block.timestamp - _sub.lastSettledTime);\n      if (_billType == BillingType.MINUTELY) {\n        _billedTime = _billedTime / 60;\n      } else if (_billType == BillingType.HOURLY) {\n        _billedTime = _billedTime / (60 * 60);\n      } else if (_billType == BillingType.DAILY) {\n        _billedTime = _billedTime / (60 * 60 * 24);\n      } else if (_billType == BillingType.WEEKLY) {\n        _billedTime = _billedTime / (60 * 60 * 24 * 7);\n      } else if (_billType == BillingType.MONTHLY) {\n        _billedTime = _billedTime / (60 * 60 * 24 * 30);\n      } else if (_billType == BillingType.QUARTERLY) {\n        _billedTime = _billedTime / (60 * 60 * 24 * 30 * 3);\n      } else if (_billType == BillingType.YEARLY) {\n        _billedTime = _billedTime / (60 * 60 * 24 * 365);\n      }\n      _subscriptionDue = _billedTime * _costPerBill;\n    }\n    _subscriptionDue += subscriptions[_subscriptionId].overdue;\n  }\n\n  function _settleSubs(uint256 _subsId)\n    internal\n    subscriptionIsPresent(_subsId)\n    isSubscribedToOrOwner(_subsId)\n  {\n    uint256 _amountDue = _calculateSubscriptionDue(_subsId);\n    address subscriber = subscriptions[_subsId].userAddress;\n\n    uint256 _amountToSettle;\n    if (_amountDue < users[subscriber].lastRecordedBalance) {\n      _amountToSettle = _amountDue;\n    } else {\n      _amountToSettle = users[subscriber].lastRecordedBalance;\n    }\n\n    users[subscriber].lastRecordedBalance -= _amountToSettle;\n    users[_getServiceOwnerOfSubscription(_subsId)].lastRecordedBalance += _amountToSettle;\n    subscriptions[_subsId].lastSettledTime = block.timestamp;\n    subscriptions[_subsId].overdue = _amountDue - _amountToSettle;\n  }\n\n  /**\n   * @dev create subscription for the user for the selected plan and\n   * allow service to collect payment based on selected plan\n   * @param _planId id of the plan to subscribe\n   * @param _userIdHash hash of the user identifier\n   */\n  function subscribe(uint256 _planId, string memory _userIdHash) external planIsPresent(_planId) {\n    require(\n      services[plans[_planId].serviceId].owner != msg.sender,\n      'Owner not allowed to subscribe'\n    );\n    for (uint256 i = 0; i < userToSubscriptions[msg.sender].length; i++) {\n      require(plans[subscriptions[userToSubscriptions[msg.sender][i]].planId].serviceId != plans[_planId].serviceId, \"User already subscribed to the service\");\n    }\n    uint256 _subscriptionId = uint256(\n      keccak256(abi.encodePacked(_planId, _userIdHash, msg.sender))\n    );\n    // require(!subscriptions[_subscriptionId].isActive, 'User already subscribed to the plan');\n\n    if (subscriptions[_subscriptionId].isPresent) {\n      _settleSubs(_subscriptionId);\n      require(\n        subscriptions[_subscriptionId].overdue == 0,\n        'User balance insufficient to settle overdue'\n      );\n      subscriptions[_subscriptionId].isActive = true;\n    } else {\n      subscriptions[_subscriptionId] = Subscription(\n        _subscriptionId,\n        _planId,\n        _userIdHash,\n        msg.sender,\n        block.timestamp,\n        0,\n        true,\n        true\n      );\n      emit SubscriptionCreated(\n        _subscriptionId,\n        _planId,\n        _userIdHash,\n        msg.sender,\n        block.timestamp,\n        0,\n        true\n      );\n    }\n    planToSubscriptions[_planId].push(_subscriptionId);\n    userToSubscriptions[msg.sender].push(_subscriptionId);\n  }\n\n  function unsubscribe(uint256 _subscriptionId)\n    public\n    subscriptionIsPresent(_subscriptionId)\n    subscriptionIsActive(_subscriptionId)\n    isSubscribedToOrOwner(_subscriptionId)\n  {\n    _settleSubs(_subscriptionId);\n    // require()\n    subscriptions[_subscriptionId].isActive = false;\n\n    uint256[] storage _planSubs = planToSubscriptions[subscriptions[_subscriptionId].planId];\n    for (uint256 i = 0; i < _planSubs.length; i++) {\n      if (_planSubs[i] == _subscriptionId) {\n        _planSubs[i] = _planSubs[_planSubs.length - 1];\n        _planSubs.pop();\n      }\n    }\n\n    uint256[] storage _userSubs = userToSubscriptions[subscriptions[_subscriptionId].userAddress];\n    for (uint256 i = 0; i < _userSubs.length; i++) {\n      if (_userSubs[i] == _subscriptionId) {\n        _userSubs[i] = _userSubs[_userSubs.length - 1];\n        _userSubs.pop();\n      }\n    }\n    emit Unsubscribed(_subscriptionId, subscriptions[_subscriptionId].planId, subscriptions[_subscriptionId].overdue, subscriptions[_subscriptionId].isActive);\n  }\n\n  function _getServiceOwnerOfSubscription(uint256 _subscriptionId)\n    private\n    view\n    subscriptionIsPresent(_subscriptionId)\n    returns (address _owner)\n  {\n    _owner = services[plans[subscriptions[_subscriptionId].planId].serviceId].owner;\n  }\n\n  function totalCollectableAmountFromPlan(uint256 _planId)\n    public\n    view\n    planIsPresent(_planId)\n    returns (uint256 _collectableFromPlan)\n  {\n    uint256[] storage _planSubs = planToSubscriptions[_planId];\n    for (uint256 k = 0; k < _planSubs.length; k++) {\n      _collectableFromPlan += _calculateSubscriptionDue(_planSubs[k]);\n    }\n  }\n\n  function totalCollectableAmountFromService(uint256 _serviceId)\n    public\n    view\n    serviceIsPresent(_serviceId)\n    isOwnerOfService(_serviceId)\n    returns (uint256 _collectableFromService)\n  {\n    uint256[] storage _servicePlans = serviceToPlans[_serviceId];\n    for (uint256 j = 0; j < _servicePlans.length; j++) {\n      _collectableFromService += totalCollectableAmountFromPlan(_servicePlans[j]);\n    }\n  }\n\n  function totalCollectableAmountFromAllServices()\n    public\n    view\n    returns (uint256 _totalCollectableAmount)\n  {\n    uint256[] storage _userServices = ownerToServices[msg.sender];\n    for (uint256 i = 0; i < _userServices.length; i++) {\n      _totalCollectableAmount += totalCollectableAmountFromService(_userServices[i]);\n    }\n  }\n\n  function collectDueFromAllSubscriptionsOfPlan(uint256 _planId) public planIsPresent(_planId) {\n    uint256[] storage _planSubs = planToSubscriptions[_planId];\n    for (uint256 k = 0; k < _planSubs.length; k++) {\n      _settleSubs(_planSubs[k]);\n    }\n  }\n\n  function collectDueFromAllPlansOfService(uint256 _serviceId)\n    public\n    serviceIsPresent(_serviceId)\n    isOwnerOfService(_serviceId)\n  {\n    uint256[] storage _servicePlans = serviceToPlans[_serviceId];\n    for (uint256 j = 0; j < _servicePlans.length; j++) {\n      collectDueFromAllSubscriptionsOfPlan(_servicePlans[j]);\n    }\n  }\n\n  function collectDueFromAllOwnedServices() public {\n    uint256[] storage _userServices = ownerToServices[msg.sender];\n    for (uint256 i = 0; i < _userServices.length; i++) {\n      collectDueFromAllPlansOfService(_userServices[i]);\n    }\n  }\n\n  function inactivateAllOverdueSubscriptionsOfPlan(uint256 _planId) public planIsPresent(_planId) {\n    uint256[] storage _planSubs = planToSubscriptions[_planId];\n    for (uint256 k = 0; k < _planSubs.length; k++) {\n      if (\n        subscriptions[_planSubs[k]].overdue >\n        users[subscriptions[_planSubs[k]].userAddress].lastRecordedBalance\n      ) {\n        unsubscribe(_planSubs[k]);\n      }\n    }\n  }\n\n  function inactivateAllOverdueSubscriptionsOfService(uint256 _serviceId)\n    public\n    serviceIsPresent(_serviceId)\n    isOwnerOfService(_serviceId)\n  {\n    uint256[] storage _servicePlans = serviceToPlans[_serviceId];\n    for (uint256 j = 0; j < _servicePlans.length; j++) {\n      inactivateAllOverdueSubscriptionsOfPlan(_servicePlans[j]);\n    }\n  }\n\n  function inactivateAllOverdueSubscriptions() external {\n    uint256[] storage _userServices = ownerToServices[msg.sender];\n    for (uint256 i = 0; i < _userServices.length; i++) {\n      inactivateAllOverdueSubscriptionsOfService(_userServices[i]);\n    }\n  }\n\n  /**\n   * @dev fetch all subscriptions of the user\n   */\n  function getSubsByUser() external view returns (UserSubsDetails[] memory) {\n    uint256 numSubs = userToSubscriptions[msg.sender].length;\n    UserSubsDetails[] memory _userSubs = new UserSubsDetails[](numSubs);\n\n    for (uint256 i = 0; i < numSubs; i++) {\n      Subscription storage _sub = subscriptions[userToSubscriptions[msg.sender][i]];\n      _userSubs[i] = UserSubsDetails(\n        _sub.subscriptionId,\n        services[plans[_sub.planId].serviceId].serviceCode,\n        plans[_sub.planId].planCode,\n        plans[_sub.planId].billingFrequency,\n        plans[_sub.planId].costPerBilling,\n        _sub.userIdHash,\n        _calculateSubscriptionDue(userToSubscriptions[msg.sender][i]),\n        _sub.isActive\n      );\n    }\n    return _userSubs;\n  }\n\n  function totalAmountDueToAllSubs() external view returns (uint256 _totalDue) {\n    uint256 _numSubs = userToSubscriptions[msg.sender].length;\n    for (uint256 i = 0; i < _numSubs; i++) {\n      _totalDue += _calculateSubscriptionDue(userToSubscriptions[msg.sender][i]);\n    }\n  }\n\n  /**\n   * @dev fetch all the services owned by the user\n   * @return _ownedServicesDetails list of all services owned by the user\n   */\n  function getAllOwnedServicesDetails() external view returns (ServiceDetails[] memory) {\n    uint256 numServices = ownerToServices[msg.sender].length;\n    ServiceDetails[] memory _ownedServicesDetails = new ServiceDetails[](numServices);\n    for (uint256 i = 0; i < numServices; i++) {\n      uint256 ithServiceId = ownerToServices[msg.sender][i];\n      uint256 activeSubsCount = 0;\n      for (uint256 j = 0; j < serviceToPlans[ithServiceId].length; j++) {\n        activeSubsCount += planToSubscriptions[serviceToPlans[ithServiceId][j]].length;\n      }\n      _ownedServicesDetails[i] = ServiceDetails(\n        ithServiceId,\n        services[ithServiceId].serviceCode,\n        serviceToPlans[ithServiceId].length,\n        activeSubsCount,\n        totalCollectableAmountFromService(ithServiceId)\n      );\n    }\n    return _ownedServicesDetails;\n  }\n\n  function getAllPlans() external view returns(PlanDetails[] memory) {\n    uint256 numServices = ownerToServices[msg.sender].length;\n    uint256 totalNumPlans = 0;\n    for (uint256 i = 0; i < numServices; i++) {\n        totalNumPlans += serviceToPlans[ownerToServices[msg.sender][i]].length;\n    }\n    PlanDetails[] memory _plans = new PlanDetails[](totalNumPlans);\n    uint256 k = 0;\n    for (uint256 i = 0; i < numServices; i++) {\n      uint256 numPlans = serviceToPlans[ownerToServices[msg.sender][i]].length;\n      for (uint256 j = 0; j < numPlans; j++) {\n        Plan storage _plan = plans[serviceToPlans[ownerToServices[msg.sender][i]][j]];\n        _plans[k++] = PlanDetails(\n          _plan.planId,\n          _plan.planCode,\n          services[_plan.serviceId].serviceCode,\n          _plan.billingFrequency,\n          _plan.costPerBilling,\n          planToSubscriptions[_plan.planId].length,\n          totalCollectableAmountFromPlan(_plan.planId)\n        );\n      } \n    }\n    return _plans;\n  }\n}\n",
  "sourcePath": "/Users/zishansami102/Documents/projects/github/charger/contracts/UserPlanSubscriptions.sol",
  "compiler": {
    "name": "solc",
    "version": "0.8.4+commit.c7e474f2.Emscripten.clang"
  },
  "schemaVersion": "3.4.3",
  "updatedAt": "2022-04-04T20:01:13.459Z",
  "devdoc": {
    "details": "Extension of User side contract for users with subscription built over UserServices",
    "kind": "dev",
    "methods": {
      "createPlan(uint256,string,uint8,uint256)": {
        "details": "create plan for the service",
        "params": {
          "_billingFrequency": "billing frequency type",
          "_costPerBilling": "cost per billing cycle",
          "_planCode": "unique identifier for the plan",
          "_serviceId": "id of the service"
        }
      },
      "createService(string)": {
        "details": "create service for the user",
        "params": {
          "_serviceCode": "unique identifier for the service"
        }
      },
      "deposit()": {
        "details": "Deposit ether in user's smart account"
      },
      "getAllOwnedServices()": {
        "details": "fetch all the services owned by the user",
        "returns": {
          "_0": "_ownedServices list of all services owned by the user"
        }
      },
      "getAllOwnedServicesDetails()": {
        "details": "fetch all the services owned by the user",
        "returns": {
          "_0": "_ownedServicesDetails list of all services owned by the user"
        }
      },
      "getCurrentBalance()": {
        "details": "Retrieves the balance of the user",
        "returns": {
          "_balance": "_balance"
        }
      },
      "getPlans(uint256)": {
        "details": "fetch all the plans of the service",
        "returns": {
          "_0": "_servicePlans list of all plans created under given service"
        }
      },
      "getSubsByUser()": {
        "details": "fetch all subscriptions of the user"
      },
      "subscribe(uint256,string)": {
        "details": "create subscription for the user for the selected plan and allow service to collect payment based on selected plan",
        "params": {
          "_planId": "id of the plan to subscribe",
          "_userIdHash": "hash of the user identifier"
        }
      },
      "withdraw(uint256)": {
        "details": "Withdraw ether from user's smart account",
        "params": {
          "_amount": "value to withdraw from the user's balance"
        }
      }
    },
    "title": "UserPlanSubscriptions",
    "version": 1
  },
  "userdoc": {
    "kind": "user",
    "methods": {},
    "version": 1
  }
}